:020000040800F2
:100000004048002035020008F31A00085503000894
:10001000F11A000891060008891F0008000000007E
:10002000000000000000000000000000470200087F
:100030009306000800000000A3020008F51A00085B
:100040004F0200084F0200084F0200084F0200084C
:100050004F0200084F0200084F0200084F0200083C
:100060004F0200084F0200084F0200084F0200082C
:100070004F0200084F0200084F0200084F0200081C
:100080004F0200084F0200084F0200080000000065
:100090000000000000000000000000004F02000807
:1000A0004F0200084F0200084F0200084F020008EC
:1000B0004F0200084F0200084F0200084F020008DC
:1000C0004F0200084F0200084F0200084F020008CC
:1000D0004F0200084F0200084F0200080000000015
:1000E0004F0200084F0200084F0200080000000005
:1000F0000000000000000000000000004F020008A7
:10010000000000004F0200084F0200084F020008E4
:1001100000000000000000000000000000000000DF
:100120004F0200084F0200084F0200084F0200086B
:100130004F02000800000000000000000000000066
:100140000000000000000000000000004F02000856
:100150004F0200084F0200084F0200084F0200083B
:100160004F0200084F0200080000000000000000DD
:10017000000000000000000000000000000000007F
:10018000000000004F020008000000000000000016
:100190004F02000800F002F800F03CF80AA090E8D6
:1001A000000C82448344AAF10107DA4501D100F032
:1001B00031F8AFF2090EBAE80F0013F0010F18BFC3
:1001C000FB1A43F0010318473C3600005C36000080
:1001D000103A24BF78C878C1FAD8520724BF30C873
:1001E00030C144BF04680C60704700000023002445
:1001F00000250026103A28BF78C1FBD8520728BF37
:1002000030C148BF0B6070471FB503F04FFA1FBDE8
:1002100010B510BD00F069F91146FFF7F5FF00F0C9
:100220009EF900F087F903B4FFF7F2FF03BC00F07A
:100230008FF900000948804709480047FEE7FEE7BC
:10024000FEE7FEE7FEE7FEE7FEE7FEE7FEE7FEE786
:1002500004480549054A064B70470000191C000870
:100260009501000840420020404800204044002002
:1002700040440020EFF3108072B6704780F310887E
:100280007047424A1368012B04D04FF001031360FA
:100290003F4A10603F4A11603F484FF08051016073
:1002A0007047EFF3108272B63848016851B34FF0CF
:1002B000000101603648016891B1EFF309811EF039
:1002C000100F08BF21ED108B21E9F00F4FF0000453
:1002D0001EF0100F08BF012441F8044D00680160B2
:1002E0002C490968096808C9B1E8F00F002B18BF4C
:1002F000B1EC108B81F309884EF0100E002B18BF63
:100300002EF0100E82F310884EF0040E7047214933
:100310000860EFF3148222F0040282F314881C496F
:100320004FF00000086019494FF0010008601B48B9
:100330001B49D0F8002041EA0201016016484FF045
:100340008051016017480068006880F3088861B632
:1003500062B670471EF0040F0CBFEFF30880EFF396
:10036000098020E9F00F40F804ED40F804ED1EF09C
:10037000040F0CBF80F3088880F3098800B502F0F1
:10038000B9F85DF804EB4EF0040E70478C000020C5
:10039000840000208800002004ED00E020ED00E053
:1003A0000000FFFF08ED00E053EA020C00F0698056
:1003B0002DE9F04B4FF00006002B1FBFB3FA83F579
:1003C00003FA05F424FA05F65E4012BF1643B2FAAA
:1003D00082F502FA05F4C5F120051EBF22FA05FCDC
:1003E00044EA0C04203556EA044C4FEA144418BF82
:1003F000641C4FF000084FF00009904271EB030CB1
:1004000039D3002919BFB1FA81F701FA07F6B0FA1A
:1004100080F700FA07F6C7F120071EBF20FA07FC95
:1004200046EA0C062037B6FBF4FCA7EB0507103FA5
:1004300007F01F0BCBF120060CFA0BFB2CFA06F68B
:1004400044BFB3460026202FA4BF5E464FF0000BEA
:100450005BEA060C08BF4FF0010B19EB0B09ABFB75
:10046000027C48EB0608C01B06FB02CC0BFB03CC4E
:1004700071EB0C01C1E70B46024641464846BDE818
:10048000F08B13B54FF000004FF00001AFF3008088
:10049000BDE81C4070474FF0000200B5134694467B
:1004A0009646203922BFA0E80C50A0E80C50B1F1CC
:1004B0002001BFF4F7AF090728BFA0E80C5048BFE0
:1004C0000CC05DF804EB890028BF40F8042B08BF7E
:1004D000704748BF20F8022B11F0804F18BF00F87A
:1004E000012B7047704770477047754600F02CF835
:1004F000AE4605006946534620F00700854618B011
:1005000020B5FFF7A5FEBDE820404FF000064FF0F4
:1005100000074FF000084FF0000B21F00701AC4638
:10052000ACE8C009ACE8C009ACE8C009ACE8C00957
:100530008D46704710B50446AFF300802046BDE8F5
:100540001040FFF770BE000000487047E0410020F7
:1005500001491820ABBEFEE726000200704710B527
:1005600003F060F8002010BD464910B54A6822F437
:1005700040324A604A6843681A434A6001684A68E0
:1005800022F480724A6001684A68036942EA0322E1
:100590004A6001684A6822F040724A6001684A680D
:1005A00083681A434A6001688A6822F400628A609C
:1005B00001688A68C3681A438A60816A6FF0706252
:1005C000D14201688A6822F070628A6001688A6894
:1005D0000CD0836A1A438A6001688A6822F040520C
:1005E0008A6001688A68C36A1A4301E022F04052B7
:1005F0008A6001688A6822F002028A6001688A685B
:10060000037E42EA43028A6090F8201000290168C4
:100610004A680FD042F400624A6001684A6822F4D6
:1006200060424A6001684A68174C436A04EB4333EE
:100630001A4301E022F400624A600168CA6A22F4A7
:100640007002CA620168CA6A838B104C04EB0353C0
:100650001A43CA6201688A6822F400728A600168DB
:100660008A6890F8303042EA43228A6001688A68DA
:1006700022F480628A6001688A68406942EA8020C8
:10068000886010BD0023014000E0FFFF0000F0FF84
:10069000FEE770474FF40056114C750000223146BA
:1006A000204600F03BFA642002F08CFC0022294630
:1006B000204600F033FA642002F084FC0122314627
:1006C000204600F02BFA642002F07CFC012229462F
:1006D000204600F023FA642002F074FCDEE70000FC
:1006E000000802401CB501210A20CDE900010B02DF
:1006F0000022044904A002F0B4FBBDE81C4002F053
:10070000ADBC000095060008454D6C696768742013
:10071000746872656164000078B50024009490F8F4
:100720003C20012A19D0012280F83C200A680723C6
:100730000568092A13D9EE680A3A02EB420293408F
:100740009E43EE600B788A680A3B03EB43039A40B2
:100750000368DD682A43DA6010E0022078BD2E6964
:1007600002EB420293409E432E610B788A6803EBB2
:1007700043039A4003681D692A431A614A681F238C
:10078000072A13D205686E6B521E02EB8202934059
:100790009E436E630B790A885B1E92B203EB830360
:1007A0009A4003685D6B2A435A6327E005680D2A67
:1007B00012D22E6BD21F02EB820293409E432E6315
:1007C0000B790A88DB1F92B203EB83039A4003681C
:1007D0001D6B2A431A6311E0EE6A0D3A02EB8202A6
:1007E00093409E43EE620B790A880D3B92B203EB75
:1007F00083039A400368DD6A2A43DA62164B056870
:10080000144A9D4206D10D68122D03D1556845F456
:100810008005556005689D4218D10B68102B01D0EA
:10082000112B13D1536843F4000353600968102956
:100830000CD10A490A4A0968B1FBF2F101EB8101C6
:10084000490000E0491E00910029FBD180F83C409E
:10085000002078BD00230140002001400C00002052
:1008600040420F0070B504004FF0000503D0206C2B
:10087000002610B107E0012070BD204600F01CF8F2
:10088000666484F83C60206CC00610D4206C20F4B0
:10089000885040F0020020642046FFF765FE666441
:1008A000206C20F0020040F00100206400E00125EF
:1008B00084F83C60284670BD30B587B004461421EA
:1008C0006846FFF7E8FD1949206888422CD118488E
:1008D0000024016841F480710160006800F48070B8
:1008E000059013481438016841F001010160016866
:1008F00001F001010591016841F002010160006809
:10090000032500F002000590F820CDE900056946B6
:100910000294084800F012F80120CDE9000569466C
:100920000294054800F00AF807B030BD00200140ED
:100930004438024000000240000402402DE9F84F14
:10094000DFF8B8A1002201240AF1040B03254FF0BF
:100950000F090BF1040E00BF0B6804FA02F63340D6
:10096000B34273D10F7907F00307012F01D0022F93
:1009700016D187684FEA420805FA08FC27EA0C07F7
:10098000D1F80CC00CFA08FC4CEA070CC0F808C0FF
:100990004768B7430E79C6F3001696403E4346605B
:1009A0000E79F643B6070DD0C768560005FA06FC67
:1009B00027EA0C07D1F808C00CFA06FC4CEA070C31
:1009C000C0F80CC00E7906F00306022E10D1D6082E
:1009D00000EB8608D8F8206057074FEAD76C09FA71
:1009E0000CF7BE430F6907FA0CF73743C8F82070BD
:1009F00006684FEA420C05FA0CF7BE430F7907F080
:100A0000030707FA0CF7374307604E6816F4403FB8
:100A10006DD03B4E376847F480473760366822F028
:100A2000030706F480460096364E07EB060CDCF80A
:100A3000086897073F0F09FA07F826EA0806DFF863
:100A4000C880404503D14FF000081EE04FE0DFF8BA
:100A5000BC80404502D14FF0010816E0DFF8B080BD
:100A6000404502D14FF002080FE0DFF8A880404572
:100A700002D14FF0030808E0DFF89C80404502D126
:100A80004FF0040801E04FF0070808FA07F848EAB9
:100A90000608CCF80888DAF800605746D1F804C098
:100AA0009E435FEACC3C00D51E433E60DBF800600D
:100AB0005F46D1F804C09E435FEA8C3C00D51E43DC
:100AC0003E60DEF800607746D1F804C09E435FEADE
:100AD000CC2C00D51E433E60084F0C373E68D1F841
:100AE00004C09E435FEA8C2C00D51E433E60521C1E
:100AF000102AFFF431AFBDE8F88F0000003C014040
:100B0000443802400030014000000240000402402E
:100B100000080240000C0240001002400AB181614E
:100B200070470904FBE70000044840680449B0FB33
:100B3000F1F04FF47A71484370470000001000E074
:100B4000806AFE0C0B4810B5016841F40071016029
:100B5000016841F480610160016841F480710160C5
:100B6000032000F033F8002000F006F800F016F83B
:100B7000002010BD003C02400648016841F0807131
:100B80000160054800214160016841F001010160F8
:100B900000207047FCED00E0001000E00A4808B5B6
:100BA000016841F480410160006800F480400090D9
:100BB0000548001F016841F080510160006800F0A5
:100BC0008050009008BD000044380240064900F003
:100BD000070208684FF6FF03184040EA0220034A64
:100BE00010430860704700000CED00E00000FA05BB
:100BF0002DE9F0470E46050065D0DFF81481D8F8DE
:100C00000000F7B200F00700B04207D288F8007089
:100C1000D8F8000000F00700B04254D128683D4CDD
:100C2000810712D5400703D5206840F4E0502060CA
:100C30002878000703D5206840F4604020602068D1
:100C4000A96820F0F000084320602878C0072DD064
:100C5000304968680839012812D0022813D00328C7
:100C600011D00968890700292DDA216821F00301D4
:100C700001432160FFF758FF814641F2883A0EE0B8
:100C800009688903EFE709688901ECE7FFF74CFF82
:100C9000A0EB0901514502D90320BDE8F087206887
:100CA000696800F00C00B0EB810FEFD1D8F80010AC
:100CB000404601F00701B14207D90770006800F013
:100CC0000700B04201D00120E7E72878400705D5AA
:100CD0002068E96820F4E050084320602878000785
:100CE00006D52068296920F4604040EAC1002060F0
:100CF00000F03EF82168084AC1F30311515CC84076
:100D00000649086006480068FFF736FF0020C4E780
:100D1000003C024008380240B63600080C000020B3
:100D20000400002001480068704700000C0000200B
:100D30000448054900680968044AC1F38221515CEE
:100D4000C84070470C00002008380240C636000832
:100D50000448054900680968044AC1F34231515CFE
:100D6000C84070470C00002008380240C636000812
:100D7000154810B5006810F00C02144813D014493F
:100D8000042A0FD0082A0ED10F4C241F2268236892
:100D900002F03F025B0207D52068C0F38810A0FB79
:100DA000010106E0084610BD2168C1F38811A1FBCE
:100DB00000010023FFF7F8FA2168C1F30141491C43
:100DC0004900B0FBF1F010BD083802400024F400E7
:100DD000001BB7002DE9F84F04006ED02078DFF833
:100DE0004C93C007A9F104054AD009F10400016839
:100DF000C1F38101012908D00068C0F381000228F5
:100E00000AD1D9F80000400206D52868800337D5FA
:100E100060680028E1D033E06068B0F5803F10D012
:100E2000B0F5A02F286810D020F480302860286802
:100E300020F4802028606068A8B1FFF775FE0646A0
:100E40000DE0286840F48030F4E740F4802028600A
:100E5000F7E700BFFFF768FE801B642873D8286897
:100E60008003F7D50CE0FFF75FFE064605E000BF04
:100E7000FFF75AFE801B6428F0D828688003F7D457
:100E80002078DFF8AC8280074FF0000A3ED5A748F3
:100E9000001D016811F00C0F08D00068C0F381003C
:100EA00002280BD1D9F80000400207D42868800737
:100EB00016D5E068012800D112E033E1E068B8B14E
:100EC0000120C8F80000FFF72FFE064605E000BF2E
:100ED000FFF72AFE801B0228C0D828688007F7D5B4
:100EE0002868216920F0F80040EAC10028600DE080
:100EF000C8F800A0FFF718FE064604E0FFF714FE4E
:100F0000801B02281FD828688007F7D420780007A4
:100F100022D5864F87486169703771B10121016020
:100F2000FFF702FE064604E0FFF7FEFD801B0228E5
:100F300009D838688007F7D50EE0C0F800A0FFF7A1
:100F4000F3FD064605E082E0FFF7EEFD801B022878
:100F50007DD838688007F7D42078400768D5DFF857
:100F6000CCB100270BF13C0BDBF80000C0000BD428
:100F7000DBF8001041F08051CBF80010DBF80000E6
:100F8000012700F0805000906B4E3068C00510D4EF
:100F9000306840F480703060FFF7C6FD009005E0D7
:100FA000FFF7C2FD0099401A022850D83068C005EA
:100FB000F6D55E4EA0686C3601280FD00528306843
:100FC00010D020F001003060306820F00400306064
:100FD000A068B8B1FFF7A8FD00900FE0306840F0BE
:100FE0000100F4E740F004003060F7E7FFF79CFDF4
:100FF0000099411A41F28830814266D830688007F2
:10100000F4D50EE0FFF790FD009007E0FFF78CFDB0
:101010000099411A41F28830814256D830688007E1
:10102000F4D42FB1DBF8001021F08051CBF8001080
:10103000A069C8B33D49091D0968C1F381010229AE
:101040004AD00228504607D0C8F8600000E03CE0D3
:10105000FFF76AFD04463BE04746C8F86000FFF72B
:1010600063FD064605E000BFFFF75EFD801B02281A
:101070002BD828688001F7D4D4E907010843A16A76
:101080002E4A490802EB0141626A41EA8211084393
:1010900094F82C1040EA0161C9F80010012038666C
:1010A000FFF742FD044606E03EE000BFFFF73CFDCF
:1010B000001B022809D828688001F7D534E000BF5A
:1010C000FFF732FD001B022802D90320BDE8F88F8C
:1010D00028688001F4D427E00128F7D0D9F800006F
:1010E000E26900F4800191421CD1226A00F03F01C4
:1010F000914217D147F6C071626A0140B1EB821F7D
:1011000010D1A26A4FF0FF3300F4403103EB5202DA
:10111000B1EB024F06D194F82C1000F07060B0EBE8
:10112000016F01D00120D1E70020CFE70438024051
:1011300000004742800E4742007000400000FFFF61
:1011400010B5401EB0F1807F01D3012010BD4FF0DB
:10115000E02460610F21601700F017FF0020A061FC
:1011600007202061002010BD10B590F83C20012A16
:1011700022D0012280F83C20CA688C6822F4407298
:1011800022434C6822F4806222430C6822F40062FD
:1011900022430C6922F4805222434C6922F400520B
:1011A0002243C969002322F480420A4301684A6449
:1011B00080F83C30002010BD022010BD70B590F8C2
:1011C0003C20012A2CD0012480F83C40022280F8E7
:1011D0003D2003685A689D6822F070060A68324311
:1011E0005A60104B02689A420ED0B2F1804F0BD079
:1011F0000D4B9A4208D00D4B9A4205D00C4B9A42A7
:1012000002D00C4B9A4204D1496825F0800319435F
:10121000916080F83D40002180F83C10084670BD88
:10122000022070BD000001400004004000080040A2
:10123000000C004000400140F0B587B00446142186
:101240006846FFF728F93D4A216800243C480225FA
:1012500001263C4F91420AD1016841F00101016031
:10126000006800F0010005904FF4E06033E0364A7A
:10127000B1F1804F12D0354B994237D1016841F01E
:10128000040101600068694600F0040005904FF415
:10129000E0700090CDE901542D484BE0016841F029
:1012A00002010160016801F002010591016841F04D
:1012B000010101600068694600F0010005904FF4EB
:1012C00081600090CDE90154CDE903461046FFF757
:1012D00035FB4FF400400090CDE90154CDE90346C1
:1012E00069463846FFF72AFB07B0F0BD194B994213
:1012F0000FD1016841F0020101600068694600F009
:10130000020005904FF470700090CDE90154104632
:1013100010E0114A9142E7D1016841F001010160FA
:101320000068694600F00100059007200090CDE9B3
:1013300001543846CDE90345D4E7000000000140E0
:101340003038024000000240000402400004004027
:101350000008024000080040000C004070B5044640
:1013600090F83C0000260D4601280FD0012084F89B
:101370003C006AB1042A1DD0082A2FD00C2A3FD085
:101380000126002084F83C00304670BD022070BD6C
:10139000206800F095FC2068816941F008018161B6
:1013A0002068816921F004018161206881692A69CE
:1013B000114311E0206800F0ABFC2068816941F422
:1013C000006181612068816921F480618161206808
:1013D00081692A6941EA02218161D2E7206800F02F
:1013E000C3FC2068C16941F00801C1612068C1697E
:1013F00021F00401C1612068C1692A69114311E02B
:10140000206800F0DDFC2068C16941F40061C16121
:101410002068C16921F48061C1612068C1692A69BD
:1014200041EA0221C161ACE710B5040003D094F891
:101430003D0010B107E0012010BD002084F83C0001
:10144000204600F01FF8022084F83D00211D20688E
:1014500000F0EAFB012084F8460084F83E0084F89E
:101460003F0084F8400084F8410084F8420084F88A
:10147000430084F8440084F8450084F83D000020CF
:1014800010BD000008B501681948814201D1194812
:1014900010E01848001FB1F1804F0BD0164A91425E
:1014A00010D1016841F002010160006800F0020003
:1014B000009008BD016841F001010160006800F082
:1014C0000100F5E70D4A914207D1016841F004019E
:1014D0000160006800F00400EAE7094A9142E8D19F
:1014E000016841F008010160006800F00800DFE7D2
:1014F0000000014044380240000400400008004061
:10150000000C004070B5040004D094F83D000025A4
:1015100010B106E0012070BD84F83C50204600F078
:1015200023F8242084F83D002068C16821F400518C
:10153000C160204600F066FC2068016921F49041FA
:1015400001612068416921F02A0141612068C16878
:1015500041F40051C1602564202084F83D0084F8E6
:101560003E00002070BD000010B586B00446142176
:101570006846FEF790FF14492068884221D113483D
:101580000021026842F020020260006800F02000A2
:1015900005900E481438026842F0010202600068AB
:1015A00000F0010005904FF4C05000900220CDE9FA
:1015B0000101032003900820049069460448FFF7C6
:1015C000BDF906B010BD00000014014044380240CF
:1015D000000002402DE9F843044690F83D001F4604
:1015E00016460D4620284CD1C5B1BEB194F83C003A
:1015F000012846D0012084F83C004FF00008C4F8D0
:101600004080212084F83D00FFF78EFAA6848146B1
:10161000E684A068B0F5805F03D004E00120BDE857
:10162000F883206928B12E465FF0000584F83C80DD
:101630000EE00026FAE78021204600F069FCA0B900
:10164000AEB116F8010B21684860E08C401EE084C2
:10165000E08C4B464FF0000200970028EBD14FF092
:101660004001204600F054FC30B10320D7E735F8A4
:10167000020BC0F30800E6E7202084F83D000020BC
:10168000CDE70220CBE700007FB500241548009489
:10169000019402941249039401604FF48031C0E92F
:1016A00001140461047680F820400F49C0E90A144F
:1016B0000125C561C46080F830404561FFF7D2F86C
:1016C00008B172B6FEE70320CDE900056946029431
:1016D0000448FFF721F8002801D072B6FEE77FBD6D
:1016E00000200140900000200100000F2DE9F04390
:1016F00087B014216846FEF7CEFE37480024016803
:1017000041F004010160016801F0040105910168E4
:1017100041F080010160016801F0800105910168DC
:1017200041F001010160016801F0010105910168CA
:1017300041F002010160016801F0020105910168B8
:1017400041F0080101600068244F00F008004FF6E6
:101750000C450590002229463846FFF7DFF9DFF8EF
:1017600080804FF22006002231464046FFF7D6F92E
:10177000DFF87090002204214846FFF7CFF900956A
:101780000125CDE90154694638460394FFF7D6F8A0
:101790003020CDE90004694638460294FFF7CEF8C0
:1017A0000620CDE90004694640460294FFF7C6F8DA
:1017B0000096CDE90154694640460394FFF7BEF810
:1017C00004200090CDE90154694648460394FFF790
:1017D000B5F807B0BDE8F083303802400008024099
:1017E00000040240000C024010B592B000240F9497
:1017F0001C2168461094FEF74EFE202107A8FEF734
:101800004AFE28482649C0E900144FF6FF71C0E996
:101810000241046144618461FFF706FE08B172B6BB
:10182000FEE70F940FA91F481094FFF7C7FC08B1FB
:1018300072B6FEE76020CDE900040294039404949C
:1018400005940022694617480694FFF787FD08B102
:1018500072B6FEE7042269461248FFF77FFD08B121
:1018600072B6FEE7082269460E48FFF777FD08B119
:1018700072B6FEE70794089409944FF400500A9456
:10188000CDE90B4007A907480E94FFF76DFC08B19E
:1018900072B6FEE70348FFF7CFFC12B010BD0000A0
:1018A00000000140D800002010B58AB00024079441
:1018B0001C2168460894FEF7EEFD1D484FF080415C
:1018C000C0E90014611EC0E9024104618461FFF7B0
:1018D000ABFD08B172B6FEE7079407A91448089457
:1018E000FFF76CFC08B172B6FEE76020CDE900049A
:1018F0000294002269460E480494FFF72FFD08B1B8
:1019000072B6FEE7042269460948FFF727FD08B1D1
:1019100072B6FEE7082269460548FFF71FFD08B1C9
:1019200072B6FEE70248FFF787FC0AB010BD000060
:101930002001002010B58AB0002407941C216846BD
:101940000894FEF7A8FD1E481C49C0E900144FF694
:10195000FF71C0E9024104618461FFF765FD08B1D0
:1019600072B6FEE7079407A915480894FFF726FC0E
:1019700008B172B6FEE76020CDE9000402940022AF
:1019800069460F480494FFF7E9FC08B172B6FEE718
:10199000042269460A48FFF7E1FC08B172B6FEE787
:1019A000082269460648FFF7D9FC08B172B6FEE77F
:1019B0000348FFF741FC0AB010BD000000040040DE
:1019C0006801002010B58AB0002407941C216846E5
:1019D0000894FEF760FD22482049C0E900144FF644
:1019E000FF71C0E9024104618461FFF71DFD08B188
:1019F00072B6FEE7079407A919480894FFF7DEFBC3
:101A000008B172B6FEE76020CDE90004029400221E
:101A1000694613480494FFF7A1FC08B172B6FEE7CB
:101A2000042269460E48FFF799FC08B172B6FEE73A
:101A3000082269460A48FFF791FC08B172B6FEE732
:101A40000C2269460648FFF789FC08B172B6FEE72A
:101A50000348FFF7F1FB0AB010BD0000000800408A
:101A6000B001002010B58AB0002407941C216846FC
:101A70000894FEF710FD1D481B49C0E90014611EC3
:101A8000C0E9024104618461FFF7CEFC08B172B67F
:101A9000FEE7079407A915480894FFF78FFB08B1E4
:101AA00072B6FEE76020CDE9000402940022694688
:101AB0000E480494FFF752FC08B172B6FEE7042208
:101AC00069460A48FFF74AFC08B172B6FEE70822E9
:101AD00069460648FFF742FC08B172B6FEE70348C4
:101AE000FFF7AAFB0AB010BD000C0040F80100206F
:101AF000FEE7FEE710B500F023FE01F047FBBDE86E
:101B0000104000F02BBE000030B593B03021684685
:101B1000FEF7C1FC14210CA8FEF7BDFC1D480024F3
:101B2000016841F080510160006800F08050119020
:101B30001948016821F4404141F400410160006806
:101B4000022500F4404011900120039010200490E1
:101B5000009506950820CDE907405420CDE90905F8
:101B600004200B906846FFF735F908B172B6FEE71E
:101B70000F20CDE90C054FF48050CDE90E40022135
:101B80000CA81094FFF734F8002801D072B6FEE7D5
:101B900013B030BD403802400070004070B5194CA1
:101BA0002068194A10F00C01184804D0184D042977
:101BB00003D0082903D002601BE0056019E0114939
:101BC000091F0B68C3F380560B6803F03F0316B17F
:101BD000B5FBF3F201E0B2FBF3F20B680968C3F363
:101BE00088135A43C1F30141491C4900B2FBF1F18A
:101BF00001602168074AC1F30311515C0268CA40C1
:101C0000026070BD083802400024F4000C0000207F
:101C1000001BB700B63600080248016841F47001A5
:101C20000160704788ED00E0F0B502681D4B1E4C66
:101C30009F031E4D1E4E984207D0B84205D0A042C9
:101C400003D0A84201D0B04204D122F0700C4A68FF
:101C500042EA0C02984210D0B8420ED0A0420CD0FA
:101C6000A8420AD0B04208D0124CA04205D0124C73
:101C7000A04202D0114CA04203D122F44074CA68A1
:101C800022434C6922F08002224302608A68C262C9
:101C90000A688262984201D10969016301214161A8
:101CA000F0BD0000000001400004004000080040BA
:101CB000000C004000400140004401400048014049
:101CC00030B5026A22F001020262026A4368846946
:101CD00024F073050C682C4322F002058A682A431D
:101CE0000A4DA8420BD122F00805CA6823F44073BC
:101CF0002A434D6922F004021D438B692B43436044
:101D0000846149684163026230BD00000000014007
:101D100030B5026A22F010020262026A43688469E6
:101D20000D6824F4E64444EA05248D6822F020027C
:101D300042EA05120B4DA8420ED1CD6822F0800276
:101D400042EA05124D6923F4406343EA85038D6935
:101D500022F0400243EA850343608461496881635D
:101D6000026230BD0000014030B5026A22F4807288
:101D70000262036A4268C46923F4007324F07305A5
:101D80000C682C438D6843EA05230C4DA8420ED104
:101D9000CD6823F4006343EA05234D6922F44052E1
:101DA00042EA05128D6923F4806342EA051242601B
:101DB000C4614968C163036230BD00000000014096
:101DC00030B5026A22F480520262046A4268C36932
:101DD0000D6823F4E64343EA05238D6824F4005498
:101DE00044EA0534064DA84204D14D6922F48042EC
:101DF00042EA85124260C36149680164046230BDF1
:101E00000000014070B5044600680169E26821F4F1
:101E10004051114301612169A068E2690843616989
:101E2000114308432168CA6849F20C639A4302438C
:101E3000CA6020684169A26921F44071114341617F
:101E400031492068884202D03049884202D1FEF7E9
:101E50007FFF01E0FEF76CFFE26900231921642592
:101E60003226B2F5004F626828D0A0FB0101930F23
:101E70009200FEF799FA0146B0FBF5F06FF01802F8
:101E8000504301EB800006EB0010B0FBF5F000F0D2
:101E9000F002B1FBF5F002EB0012B1FBF5F06FF0D0
:101EA0001803584301EB800006EB0010B0FBF5F07F
:101EB00000F00F0021681044886070BDA0FB010194
:101EC00092185B41FEF770FA0146B0FBF5F0020193
:101ED000B1FBF5F06FF01803584301EB800006EBFF
:101EE000C000B0FBF5F000F0F80002EB4002B1FBDF
:101EF000F5F0584301EB800006EBC000B0FBF5F0B5
:101F000000F00700D6E70000001001400014014077
:101F10002DE9F041984617460E460446069D27E0F7
:101F2000681C25D02DB1FEF7FFFDA0EB0800A842EC
:101F30001ED920680C3050E8001F21F4D07140E811
:101F40000012002AF5D12068143050E8001F21F05B
:101F5000010140E80012002AF5D1202084F83D005C
:101F600084F83E00002084F83C000320BDE8F081A6
:101F70002068006836EA000004D00020B842CFD0C4
:101F80000020F3E70120F9E7FEE70907090E002822
:101F900004DB00F1E02080F80014704700F00F002F
:101FA00000F1E02080F8141D70470000002807D0E1
:101FB0000E4910F0FF0F04D051FA80F00078401C59
:101FC000704710F47F4F04D0C0F30720085C09303D
:101FD000704710F47F0F04D0C0F30740085C113045
:101FE000704701EB1060007819307047CE3600085A
:101FF0002DE9FC411F460446DDE90831DDE90A65AB
:10200000143040600060C4E90827C4E90A310A4678
:10201000232118461C3400F06FFCD4E90301421858
:10202000D4E90101104B121F00F06CFB44F81A0BAD
:10203000002004F801690D4A04F8036BE4E8020586
:1020400044F8105901C404F83C0B01C444F8740965
:10205000009023460190194604F1440001F02AF94A
:102060000020BDE8FC810000AD2E0008CB30000848
:1020700010B5029C24F001044472C0E9071200214B
:10208000C0E9093114304060006010BD143000F028
:10209000B1BB70B50546FEF7EDF8296F044609B1EE
:1020A000284688472046BDE87040FEF7E7B80000A4
:1020B000FEF748FDFFF728FDFFF718FBFFF794FB3D
:1020C000FFF7F2FBFFF736FCFFF77CFC1F481E49C9
:1020D0000C2201604FF4E131416000218160C16058
:1020E000C0E904128161C161FFF70CFA08B172B650
:1020F000FEE7FFF7B7FCFFF7C7FAFEF7F3FA4FF476
:102100000056134C7500002231462046FEF706FDAE
:10211000642000F057FF002229462046FEF7FEFC0F
:10212000642000F04FFF012231462046FEF7F6FC06
:10213000642000F047FF012229462046FEF7EEFC0E
:10214000642000F03FFFDEE7001401404002002061
:102150000008024010B500F0EBF8BDE81040FFF7B2
:10216000A7BF000030B5134943680A68134402F161
:10217000080498420DD05D885DB94D68AB4208D027
:102180008D689D4200D188605D6845605B68851AF6
:102190001D518368134483420BD05D88002D08D104
:1021A0008D68854200D18B60416859604068991AFA
:1021B000015130BD180000202DE9F04F85B099463F
:1021C000DDE90EA5109CAB46630602D5DFF814C10D
:1021D00003E0DFF810C1ACF1110CE30601D524F0E7
:1021E0000104E30701D0302300E0202300260493FC
:1021F000A3070BD5002A02DA2D26524206E0630718
:1022000001D52B2602E0230700D520260023EE4629
:1022100022B930228DF8002001230CE0B9F10A0F19
:1022200014D002F00F0812091CF808800EF8038081
:102230005B1C002AF2D1AB4200DD1D46AAEB050271
:1022400014F0110F4FF0200708D015E00A27B2FB59
:10225000F7F807FB1828B2FBF7F2E5E73EB1002AD2
:1022600005DD521E03E0884200D20770401CB2F127
:10227000000CA2F10102F6DC26B1884200D2067001
:10228000401C521EE40605D508E0884201D2049C99
:102290000470401C141EA2F10102F6DC30242E460C
:1022A0006D1E9E420ADD884200D20470401CF6E793
:1022B000884201D2E55C0570401C00E074461D1E9A
:1022C000A3F1010307DDBBF1000FF1D103E0884268
:1022D00000D20770401C131EA2F10102F7DC05B00A
:1022E000BDE8F08FDF3700081CB514210A20CDE9C6
:1022F00000014FF480630022034904A000F0B1FD07
:10230000BDE81C4000F0AABE552100086D61696E51
:102310000000000070B5044C044D02E020688047C6
:10232000241DAC42FAD370BDF4370008FC37000816
:1023300070B5044C044D02E020688047241DAC4277
:10234000FAD370BDFC3700080038000810B5FDF75F
:1023500091FF044A5188491C5180BDE81040FDF7A7
:102360008DBF00006000002010B5FDF783FF0B4C0F
:102370006188491E09B2618000290ADC0021618060
:10238000FDF77CFF6068002807D0BDE8104000F032
:1023900063BBBDE81040FDF771BF10BD60000020B9
:1023A00070B5002833D01A4D296888422FD3696848
:1023B00088422CD2A0F10C044FF0FF31154800F0F8
:1023C000FAFB60884FF4F55610B12088B04208D06F
:1023D00011A000F0D1F923886288214615A000F0F1
:1023E000CBF9002060802680A868844200D2AC60CF
:1023F00029686068611A401A2969081A286120460C
:10240000FFF7B0FEBDE87040024800F0AFBB70BD02
:10241000180000207C040020746F2066726565201F
:102420006120626164206461746120626C6F636B1F
:102430003A0A00006D656D3A203078253038782CE6
:10244000207573656420666C61673A2025642C20D2
:102450006D6167696320636F64653A203078253069
:1024600034780A00004870479C05002000487047F7
:102470009C41002010B5FEF765FBFFF745FBFFF719
:102480008DFBFEF74FFC4FF47A71B0FBF1F0FEF7D5
:1024900057FEFFF73FFFFFF7E9FF0446FFF7E2FFB4
:1024A0002146BDE8104000F051BC0000F8B50646DA
:1024B0000D200F498DF80000002481F83C40304683
:1024C00000F028FC05460FE0305D0A2805D1012305
:1024D0001A4669460648FFF77DF8012331191A4666
:1024E0000348FFF777F8641CAC42EDD3F8BD000059
:1024F0009C41002070B52F490546283009682C1DE5
:1025000011B18847002853D02BA0216C00F034F97A
:102510002DA0616A00F030F92FA0A16A00F02CF91B
:1025200031A0E16A00F028F933A0216B00F024F912
:1025300035A0616800F020F937A0A16800F01CF90F
:1025400039A0E16800F018F93BA0216900F014F906
:102550003DA0616900F010F93FA0A16900F00CF9FD
:1025600041A0E16900F008F943A0216A00F004F9F4
:1025700045A0616B00F000F947A0A16B00F0FCF8EA
:1025800049A0E16B00F0F8F82878400706D500F084
:102590003FFD014648A000F0EFF802E04EA000F039
:1025A000EBF82878C00602D452A000F0E5F8FEE768
:1025B00070BD0000800000207073723A20307825D2
:1025C0003038780A000000007230303A2030782528
:1025D0003038780A000000007230313A2030782517
:1025E0003038780A000000007230323A2030782506
:1025F0003038780A000000007230333A20307825F5
:102600003038780A000000007230343A20307825E3
:102610003038780A000000007230353A20307825D2
:102620003038780A000000007230363A20307825C1
:102630003038780A000000007230373A20307825B0
:102640003038780A000000007230383A203078259F
:102650003038780A000000007230393A203078258E
:102660003038780A000000007231303A2030782586
:102670003038780A000000007231313A2030782575
:102680003038780A000000007231323A2030782564
:102690003038780A00000000206C723A203078252B
:1026A0003038780A000000002070633A2030782526
:1026B0003038780A00000000686172642066617535
:1026C0006C74206F6E207468726561643A202573A3
:1026D0000D0A0D0A000000006861726420666175D1
:1026E0006C74206F6E2068616E646C65720D0A0DEB
:1026F0000A00000046505520616374697665210D1B
:102700000A00000070B50446121D22F007000022E6
:102710000A4D443840F82250521C112AFAD3416223
:1027200000218162C16200F13402016382E81A0073
:102730004FF080730364016070BD0000EFBEADDE3A
:1027400010B5FDF797FD044A1178491C1170BDE8DA
:102750001040FDF793BD00001400002010B5FDF7F8
:1027600089FD044A1178491E1170BDE81040FDF73B
:1027700085BD0000140000200FB47F2110B503AB0D
:102780000448029A00F004FE0248FFF78FFE10BCD6
:102790005DF814FBFC0300200268516002680A60C7
:1027A0000160486070470268516002680A60016019
:1027B000486070470268516002680A6001604860C2
:1027C00070474268116042684A6041600860704723
:1027D000D0E900124A60D0E9001211604060006048
:1027E0007047D0E900124A60D0E9001211604060E1
:1027F00000607047D0E900124A60D0E90012116011
:1028000040600060704700002DE9F047002807D0C5
:10281000374CC01C20F00306E068864202D9002035
:10282000BDE8F0870C2E00D20C264FF0FF31314866
:1028300000F0C1F9D4F808C02168E768ACEB0100EA
:10284000BA1B4FE00D186B88E3BB6B681B1A0C3B7F
:10285000B34246D36A6806F11803121A0C3A4FF0D5
:1028600001094FF4F55A9A422DD383190C33CA1833
:102870004FF00008A2F800A0A2F80280D5F804806A
:10288000C2E901806B60A5F8029050680C37B8422D
:1028900002D001F108028350206930440C302061DD
:1028A0006269824200D26061A5F800A0654512D13C
:1028B000A06842887AB1626890420CD040680844AF
:1028C000A060F6E70DE0A5F8029068686A1A801A21
:1028D00022691044E3E7074800F048F905F10C00CD
:1028E0009EE768688242ADD8024800F03FF996E75B
:1028F000180000207C04002010B50346CCB2042A46
:102900001AD3810718D1194644EA042343EA034342
:1029100006E008C1103A08C141F8083B41F8043C00
:10292000102AF6D201E008C1121F042AFBD20B467E
:1029300002E000BF03F8014B521EFBD210BD2DE98F
:10294000F0410F46064600F045F80546C068FFF71F
:102950005BFF040019D00021EA68FFF7CDFF267263
:102960000020607208223946204600F0DBF9FDF7AE
:1029700081FC064604F10C01281DFFF70DFF3046CF
:10298000FDF77CFC2046BDE8F0810020FBE770B538
:10299000044600202072FDF76DFC054604F10C0092
:1029A000FFF716FF2846FDF769FC2046BDE870409A
:1029B000FFF7F6BC70B5044600202072FDF75AFC04
:1029C000054604F10C00FFF703FF2846BDE8704000
:1029D000FDF754BC074A002102EB01131B78834228
:1029E00002D102EB01107047491C0329F4DB0020DF
:1029F00070470000300000202DE9F04104461646E3
:102A00000D460846FFF7E6FF0746FFF79FFC381D17
:102A1000796800E009688142FCD1FFF7A5FC45F028
:102A20008000207208223146204600F07BF9FDF735
:102A300021FC054604F10C01381DFFF7ADFE2846C8
:102A4000BDE8F041FDF71ABC007A000601D501206F
:102A5000704700207047000070B5FDF70BFC114C6B
:102A600005466088B0B9A068FFF7A0FA0E49401E7D
:102A7000626851F83010143991420BD020700B4825
:102A80006160007801F11C01002802F11C0006D0F1
:102A9000FDF7F7FB2846BDE87040FDF7EFBBFDF7FB
:102AA000F0FBF7E7600000209C04002014000020E9
:102AB00010B50446FDF7DEFB024694F834000E49DB
:102AC00020F00F00401C84F8340094F8350001EB2E
:102AD000C00104F114004B6818604B68A3614860A2
:102AE00006486161A16B836819438160BDE81040AD
:102AF0001046FDF7C3BB00009C04002060000020CE
:102B000010B50446FDF7B6FB04F11401D1E900232A
:102B10005360D1E900231A60A161616194F8352006
:102B2000074951F8323001EBC2018B4204D105490B
:102B3000A36B8A689A438A60BDE81040FDF79EBB8C
:102B40009C040020600000202DE9F04116460A4652
:102B50001F4605460221FFF74FFF05F11404AC6143
:102B60006C61AE836F720020BDE8F08170B50446E1
:102B7000FDF780FB0546606904F11401884208D026
:102B8000143800F026FA2846FDF778FBFFF764FFBB
:102B900009E0A08B4FF6FF71884206D2401CA0834B
:102BA0002846FDF76BFB002070BD2846FDF766FB4D
:102BB0006FF0020070BD2DE9F3410446FDF75AFBAA
:102BC0000746A08B28B1401EA0833846FDF756FB70
:102BD00046E0019870B100F01BFA06460020306311
:102BE00004F11405647A304600F04EFAF4B1012C79
:102BF00021D106E03846FDF741FB6FF00100BDE84A
:102C0000FC812C680EE096F8351094F82120A4F190
:102C10001400914205D206F114011430FFF7D1FDE2
:102C200002E02468AC42EED1AC4204D106F11401BA
:102C30002846FFF7C6FD0198002809DD06F144008B
:102C400001AA0021044600F0FDFA204600F046FBF0
:102C50003846FDF713FBFFF7FFFE306B0028CED19F
:102C60000020CCE708B509A0FFF786FD0AA0FFF712
:102C700083FD12A0009005230122032112A0FFF77B
:102C80007BFDBDE8084018A0FFF776BD0A205C2058
:102C90007C202F0A000000002D205254202D2020DF
:102CA000202020546872656164204F7065726174E1
:102CB000696E672053797374656D0A004D617920E0
:102CC0003134203230323200202F207C205C202012
:102CD00020202025642E25642E2564206275696CD1
:102CE000642025730A0000002032303036202D2069
:102CF0003230323020436F707972696768742062B5
:102D0000792072742D746872656164207465616DD8
:102D10000A000000014600E0491C0A78002AFBD1A5
:102D2000081A704710B5002A07D0034611F8014B66
:102D300003F8014B2CB1521EF8D110BD03F8011B52
:102D400000E00021521EF9D110BD00000A46C11C4E
:102D500010B522F0030321F00301182B20D9A3F1B1
:102D600018048C421CD3114C581A18382160E060AA
:102D70004FF4F5520A8000230C30C1E901034B8067
:102D80004B68194461600A8001224A80486088606B
:102D9000002307A10848FFF7D7FE2068A06010BDF8
:102DA0000146BDE8104005A0FFF7E6BC1800002072
:102DB00068656170000000007C0400206D656D2076
:102DC000696E69742C206572726F72206265676922
:102DD0006E206164647265737320307825782C20CE
:102DE000616E6420656E6420616464726573732033
:102DF000307825780A00000010B50A4900230A4CF3
:102E00004B80184604EBC002401C52601260202820
:102E1000F8DB1F20087003484B600C308B6040606B
:102E2000006010BD600000209C04002010B5074C1D
:102E3000A068FFF7BBF80649401E51F8300014386F
:102E40006060BDE810401C30FDF761BA60000020F2
:102E50009C0400200148406000607047780000201A
:102E600070472DE9FF478946DDE90C768246014629
:102E70001D4690460120FFF762FD041E0DD0284636
:102E8000FFF7C2FC60B103968DE8A10043464A46B5
:102E900051462046FFF7ACF8204604B0BDE8F08765
:102EA0002046FFF774FD0020F7E7000070B51448D6
:102EB0000468FDF7DFF905462046FFF7EAF82046EB
:102EC000FFF71EFE042084F8340004F1440000F0F3
:102ED000DDF92046FFF7B8FD01280CD004F11401FC
:102EE0000848FFF760FC00BFFFF7B6FD2846BDE8C5
:102EF0007040FDF7C3B92046FFF75CFDF4E7000022
:102F0000640000206C00002000F002F8FCE70000E4
:102F10002DE97040FDF7AEF905460F480168814282
:102F200014D00168A1F11404D1E900024260D1E992
:102F300000021060496009604869FFF731FA2046D5
:102F4000FFF725FD2846FDF799F9E3E72846BDE898
:102F50007040FDF793B900006C0000201FB52023DE
:102F600008481F22D9008DE80F000023064A07A158
:102F7000783800F00FF804B00248BDE81040783807
:102F800000F06CB8FC020020092F00087469646C22
:102F9000650000002DE9FF5F92460EAA0C4692E8FC
:102FA000E0010A46994683460121FFF725FD8DE899
:102FB000E0014B46524621465846FFF719F804B047
:102FC000BDE8F09F10B500F0C1F8BDE8104000F07A
:102FD00025B870B5044690F8340000F00F000228C0
:102FE00002D04FF0FF3070BDFDF744F9054604F103
:102FF0001400FFF7F6FB04F1440000F0B1F9284695
:10300000FDF73CF92046FFF753FD002070BD00009E
:10301000014800687047000064000020F1B5FDF72A
:1030200029F905460C480468204600F02DF804F103
:1030300044006A460021064600F004F9304600F0DC
:103040004DF92846FDF71AF9FFF706FD206B801CA5
:1030500000D120630020F8BD6400002010B590F876
:103060003610012280F835108A400221826380F8F0
:103070003410FFF7AEFF0348006808B1FFF7ECFC1F
:10308000002010BD6400002070B5044690F83400A4
:1030900000F00F00012802D04FF0FF3070BDFDF7A7
:1030A000E9F805462046FFF72BFD94F8340020F0A0
:1030B0000F00801C84F8340004F1440000F050F943
:1030C0002846FDF7DBF8002070BD10B504466FF010
:1030D0000100206304F11400FFF783FB2046FFF793
:1030E000E7FCBDE81040FFF7B7BC000070B5FDF786
:1030F000C1F806461348046894F8340000F00F0045
:10310000012819D1D4E90501884215D004F1140031
:103110000546FFF766FB94F835000B4901EBC0004C
:1031200041680D6041686960456028603046FDF780
:10313000A5F8FFF791FC02E03046FDF79FF800206C
:1031400070BD0000640000209C040020002802DA0A
:103150004FF0FF3070474FF47A7190FBF1F290FB23
:10316000F1F301FB130000EB40034A43C3EBC01033
:103170004B1E03EBC00090FBF1F0104470470000C1
:10318000014800687047000010000020094810B591
:103190000168491C0160FFF73BFF016C491E016497
:1031A00003D1C16B0164FFF7A1FFBDE8104000F03F
:1031B00003B80000100000202DE9FC41CDF804D038
:1031C000CDF800D0FFF7DCFF0646FDF753F80746C1
:1031D0001B4D2DE060696FF00041301A143C8842AD
:1031E00029D22046FEF752FF607A810702D420F0F0
:1031F0000100607204F1140188466846FFF7DAFAAC
:10320000D4E907108847FFF7BBFF064600986946D8
:1032100088420DD04046FFF7EDFA607A810707D566
:10322000C10705D020F001006072204600F056F87A
:103230002C68AC42CED13846FDF720F8BDE8FC81C1
:103240007800002070B515460E460446FDF712F8CA
:10325000052E17D2DFE806F00503080C1100616A9D
:103260000FE0296861620DE0617A21F0020102E05D
:10327000617A41F00201617204E0617AC90700D00D
:1032800001212960FCF7FAFF002070BD70B50446EB
:10329000FCF7F0FF05462046FEF7F8FE607A20F0C6
:1032A000010060722846FCF7E9FF2046FFF782FB29
:1032B000002070BD2DE9F8439046DDE908450A4637
:1032C0001F4606460A21FFF797FB23463A4641462A
:1032D00030460095FEF7CCFEBDE8F8832DE9F843B3
:1032E0000446FCF7C7FF80462046FEF7CFFE607A13
:1032F00020F001006072FFF743FF616A174A43182C
:10330000A3620020009202EBC002694656686FF08B
:1033100000475DF820200AE01268A2EBC0056D6945
:103320009D4202D0ED1ABD4203D341F82020B242A3
:10333000F2D10A48001F0168491C016004F1140120
:103340000098FFF737FA607A40F00100607240465B
:10335000FCF794FF0020BDE8F8830000780000200F
:1033600070B50446407AC0070ED0FCF783FF0546CF
:103370002046FEF78BFE607A20F00100607228463E
:10338000FCF77CFF002070BD4FF0FF3070BD0000E7
:103390002DE9FF4F8946044600EB090783B08046BC
:1033A0004FF0FF3A4FF0200BA74202D25746C8F128
:1033B000FF390BE1252803D0BC4200D2207080E009
:1033C00000260599491C059108782D2811D02B2835
:1033D00012D0202813D0232814D0302815D00A78F2
:1033E0005546303A0A2A13D205A800F030F90546AE
:1033F0001AE046F01006E4E746F00406E1E746F07E
:103400000806DEE746F02006DBE746F00106D8E7CF
:103410002A2809D10698491C059120C80690002D3C
:1034200002DA6D4246F010060598D44601782E293E
:1034300018D1401C05900178A1F130020A2A04D26B
:1034400005A800F004F9844607E02A2908D1401CA9
:103450000590069850F804CB0690BCF1000F01DAF5
:103460004FF0000C059A00201178682901D06C29D2
:1034700002D1521C0846059211780A236F2974D094
:103480000CDC63291FD004DC25296FD058290DD10D
:1034900084E0642901D0692908D183E0702966D0CD
:1034A00073292CD075297FD0782979D0BC4201D2DC
:1034B000252020700598641C0178E9B3BC4200D235
:1034C0002170641C7FE0F00608D458466D1E002D64
:1034D00004DDBC4200D22070641CF7E70698BC42B1
:1034E00010F8041B069000D22170584602E0BC423E
:1034F00000D22070641C6D1E002DF8DC63E006987D
:1035000002C8069001B941A1002000E0401CA84279
:1035100002D00A5C002AF9D1BCF1000F02DD60453F
:1035200000DD6046F2060BD45A462B466D1E8342E0
:1035300006DDBC4202D200E054E02270641CF4E7D5
:10354000002206E0BC4201D20B782370491C521CB9
:10355000641C8242F6DB5A4629466D1E814232DDEA
:10356000BC4200D22270641CF6E715E010E0681C33
:1035700002D1082546F00106CDE9005C06980296C6
:10358000102304C806903946204619E00CE007E0F5
:10359000BC4296D2252011E7082305E046F04006FC
:1035A000102301E046F002066C2801D068281CD0E8
:1035B000069804C80690CDE9005C3946204602967C
:1035C000FEF7FAFD04460598401C05900598007822
:1035D00000287FF4EFAEB9F1000F11D0BC420DD23C
:1035E00020700DE0401E0590EDE7069830F8041BB2
:1035F00006908AB2B007DED512B2DCE707F8010CFC
:1036000007B0A4EB0800BDE8F08F0000284E554C31
:103610004C290000002070470020704700207047B0
:103620000020704710B5FCF725FEFEF723FFFFF7DB
:1036300019FBFFF70FFCFFF7DFFBFEF755FEFFF767
:103640000FFCFFF78BFCFFF7F1FB002010BD10B55E
:10365000014600206FF02F0307E0541C0C60127825
:1036600000EB800003EB400010440A681478303C03
:103670000A2CF2D310BD00000B4810B509490160B7
:103680004FF4E1314160002181600C22C160C0E94A
:1036900004128161C161FDF735FF002800D0FEE70B
:1036A00010BD0000004400409C4100204FF04070DD
:1036B000E1EE100A70470000000000000000010267
:1036C00003040607080900000000010203040000CB
:1036D00001000200010003000100020001000400DB
:1036E00001000200010003000100020001000500CA
:1036F00001000200010003000100020001000400BB
:1037000001000200010003000100020001000600A8
:10371000010002000100030001000200010004009A
:103720000100020001000300010002000100050089
:10373000010002000100030001000200010004007A
:103740000100020001000300010002000100070067
:10375000010002000100030001000200010004005A
:103760000100020001000300010002000100050049
:10377000010002000100030001000200010004003A
:103780000100020001000300010002000100060028
:10379000010002000100030001000200010004001A
:1037A0000100020001000300010002000100050009
:1037B00001000200010003000100020001000400FA
:1037C000010002000100030001000200010030318D
:1037D00032333435363738396162636465660030B8
:1037E0003132333435363738394142434445460067
:1037F0002136000819360008793600081536000809
:103800001D36000824380008000000209000000049
:10381000D0010008B438000890000020B047000034
:10382000EC01000801000000100000000000000092
:103830000024F40000000000000000000000000070
:103840000000000000000000000000000000000078
:1038500000000000010000003400002034000020BF
:103860007800000002000000440000204400002016
:10387000200000000A000000540000205400002036
:103880002C0000000000000000000000000000000C
:103890000000000000000000000000000000000028
:1038A0000000000000000000000000000000000018
:0438B0000000000014
:040000050800019559
:00000001FF
