Component: ARM Compiler 5.06 update 6 (build 750) Tool: armlink [4d35ed]

==============================================================================

Section Cross References

    startup_stm32f401xc.o(STACK) refers (Special) to heapauxi.o(.text) for __use_two_region_memory
    startup_stm32f401xc.o(HEAP) refers (Special) to heapauxi.o(.text) for __use_two_region_memory
    startup_stm32f401xc.o(RESET) refers (Special) to heapauxi.o(.text) for __use_two_region_memory
    startup_stm32f401xc.o(RESET) refers to startup_stm32f401xc.o(STACK) for __initial_sp
    startup_stm32f401xc.o(RESET) refers to startup_stm32f401xc.o(.text) for Reset_Handler
    startup_stm32f401xc.o(RESET) refers to stm32f4xx_it.o(i.NMI_Handler) for NMI_Handler
    startup_stm32f401xc.o(RESET) refers to context_rvds.o(.text) for HardFault_Handler
    startup_stm32f401xc.o(RESET) refers to stm32f4xx_it.o(i.MemManage_Handler) for MemManage_Handler
    startup_stm32f401xc.o(RESET) refers to stm32f4xx_it.o(i.BusFault_Handler) for BusFault_Handler
    startup_stm32f401xc.o(RESET) refers to stm32f4xx_it.o(i.UsageFault_Handler) for UsageFault_Handler
    startup_stm32f401xc.o(RESET) refers to stm32f4xx_it.o(i.DebugMon_Handler) for DebugMon_Handler
    startup_stm32f401xc.o(RESET) refers to board.o(i.SysTick_Handler) for SysTick_Handler
    startup_stm32f401xc.o(.text) refers (Special) to heapauxi.o(.text) for __use_two_region_memory
    startup_stm32f401xc.o(.text) refers to system_stm32f4xx.o(i.SystemInit) for SystemInit
    startup_stm32f401xc.o(.text) refers to __main.o(!!!main) for __main
    startup_stm32f401xc.o(.text) refers to startup_stm32f401xc.o(HEAP) for Heap_Mem
    startup_stm32f401xc.o(.text) refers to startup_stm32f401xc.o(STACK) for Stack_Mem
    main.o(i.MX_ADC1_Init) refers to stm32f4xx_hal_adc.o(i.HAL_ADC_Init) for HAL_ADC_Init
==============================================================================

Removing Unused input sections from the image.

    Removing main.o(.rev16_text), (4 bytes).
    Removing main.o(.revsh_text), (4 bytes).
    Removing main.o(.rrx_text), (6 bytes).
    Removing main.o(i.Error_Handler), (4 bytes).
    Removing stm32f4xx_it.o(.rev16_text), (4 bytes).
    Removing stm32f4xx_it.o(.revsh_text), (4 bytes).
    Removing stm32f4xx_it.o(.rrx_text), (6 bytes).
    Removing stm32f4xx_hal_msp.o(.rev16_text), (4 bytes).
    Removing stm32f4xx_hal_msp.o(.revsh_text), (4 bytes).
    Removing stm32f4xx_hal_msp.o(.rrx_text), (6 bytes).
    Removing stm32f4xx_hal_msp.o(i.HAL_ADC_MspDeInit), (60 bytes).
    Removing stm32f4xx_hal_msp.o(i.HAL_TIM_PWM_MspDeInit), (96 bytes).
    Removing stm32f4xx_hal_msp.o(i.HAL_UART_MspDeInit), (44 bytes).
    Removing stm32f4xx_hal_adc.o(.rev16_text), (4 bytes).
    Removing stm32f4xx_hal_adc.o(.revsh_text), (4 bytes).
    Removing stm32f4xx_hal_adc.o(.rrx_text), (6 bytes).
    Removing stm32f4xx_hal_adc.o(i.ADC_DMAConvCplt), (110 bytes).
    Removing stm32f4xx_hal_adc.o(i.ADC_DMAError), (22 bytes).
==============================================================================

Image Symbol Table

    Local Symbols

    Symbol Name                              Value     Ov Type        Size  Object(Section)

    ../Core/Src/main.c                       0x00000000   Number         0  main.o ABSOLUTE
    ../Core/Src/stm32f4xx_hal_msp.c          0x00000000   Number         0  stm32f4xx_hal_msp.o ABSOLUTE
    ../Core/Src/stm32f4xx_it.c               0x00000000   Number         0  stm32f4xx_it.o ABSOLUTE
    ../Core/Src/system_stm32f4xx.c           0x00000000   Number         0  system_stm32f4xx.o ABSOLUTE
    ../Drivers/STM32F4xx_HAL_Driver/Src/stm32f4xx_hal.c 0x00000000   Number         0  stm32f4xx_hal.o ABSOLUTE
    ../Drivers/STM32F4xx_HAL_Driver/Src/stm32f4xx_hal_adc.c 0x00000000   Number         0  stm32f4xx_hal_adc.o ABSOLUTE
    ../Drivers/STM32F4xx_HAL_Driver/Src/stm32f4xx_hal_adc_ex.c 0x00000000   Number         0  stm32f4xx_hal_adc_ex.o ABSOLUTE
    ../Drivers/STM32F4xx_HAL_Driver/Src/stm32f4xx_hal_cortex.c 0x00000000   Number         0  stm32f4xx_hal_cortex.o ABSOLUTE
    ../Drivers/STM32F4xx_HAL_Driver/Src/stm32f4xx_hal_dma.c 0x00000000   Number         0  stm32f4xx_hal_dma.o ABSOLUTE
    ../Drivers/STM32F4xx_HAL_Driver/Src/stm32f4xx_hal_dma_ex.c 0x00000000   Number         0  stm32f4xx_hal_dma_ex.o ABSOLUTE
    ../Drivers/STM32F4xx_HAL_Driver/Src/stm32f4xx_hal_exti.c 0x00000000   Number         0  stm32f4xx_hal_exti.o ABSOLUTE
    ../Drivers/STM32F4xx_HAL_Driver/Src/stm32f4xx_hal_flash.c 0x00000000   Number         0  stm32f4xx_hal_flash.o ABSOLUTE
    ../Drivers/STM32F4xx_HAL_Driver/Src/stm32f4xx_hal_flash_ex.c 0x00000000   Number         0  stm32f4xx_hal_flash_ex.o ABSOLUTE
    ../Drivers/STM32F4xx_HAL_Driver/Src/stm32f4xx_hal_flash_ramfunc.c 0x00000000   Number         0  stm32f4xx_hal_flash_ramfunc.o ABSOLUTE
    ../Drivers/STM32F4xx_HAL_Driver/Src/stm32f4xx_hal_gpio.c 0x00000000   Number         0  stm32f4xx_hal_gpio.o ABSOLUTE
    ../Drivers/STM32F4xx_HAL_Driver/Src/stm32f4xx_hal_pwr.c 0x00000000   Number         0  stm32f4xx_hal_pwr.o ABSOLUTE
    ../Drivers/STM32F4xx_HAL_Driver/Src/stm32f4xx_hal_pwr_ex.c 0x00000000   Number         0  stm32f4xx_hal_pwr_ex.o ABSOLUTE
    ../Drivers/STM32F4xx_HAL_Driver/Src/stm32f4xx_hal_rcc.c 0x00000000   Number         0  stm32f4xx_hal_rcc.o ABSOLUTE
    ../Drivers/STM32F4xx_HAL_Driver/Src/stm32f4xx_hal_rcc_ex.c 0x00000000   Number         0  stm32f4xx_hal_rcc_ex.o ABSOLUTE
    ../Drivers/STM32F4xx_HAL_Driver/Src/stm32f4xx_hal_tim.c 0x00000000   Number         0  stm32f4xx_hal_tim.o ABSOLUTE
    ../Drivers/STM32F4xx_HAL_Driver/Src/stm32f4xx_hal_tim_ex.c 0x00000000   Number         0  stm32f4xx_hal_tim_ex.o ABSOLUTE
    ../Drivers/STM32F4xx_HAL_Driver/Src/stm32f4xx_hal_uart.c 0x00000000   Number         0  stm32f4xx_hal_uart.o ABSOLUTE
    ../Drivers/STM32F4xx_HAL_Driver/Src/stm32f4xx_ll_adc.c 0x00000000   Number         0  stm32f4xx_ll_adc.o ABSOLUTE
    ../Middlewares/Third_Party/RealThread_RTOS/bsp/_template/cubemx_config/board.c 0x00000000   Number         0  board.o ABSOLUTE
    ../Middlewares/Third_Party/RealThread_RTOS/libcpu/arm/cortex-m4/context_rvds.S 0x00000000   Number         0  context_rvds.o ABSOLUTE
    ../Middlewares/Third_Party/RealThread_RTOS/libcpu/arm/cortex-m4/cpuport.c 0x00000000   Number         0  cpuport.o ABSOLUTE
    ../Middlewares/Third_Party/RealThread_RTOS/src/clock.c 0x00000000   Number         0  clock.o ABSOLUTE
    ../Middlewares/Third_Party/RealThread_RTOS/src/components.c 0x00000000   Number         0  components.o ABSOLUTE
    ../Middlewares/Third_Party/RealThread_RTOS/src/cpu.c 0x00000000   Number         0  cpu.o ABSOLUTE
    ../Middlewares/Third_Party/RealThread_RTOS/src/idle.c 0x00000000   Number         0  idle.o ABSOLUTE
    ../Middlewares/Third_Party/RealThread_RTOS/src/ipc.c 0x00000000   Number         0  ipc.o ABSOLUTE
    ../Middlewares/Third_Party/RealThread_RTOS/src/irq.c 0x00000000   Number         0  irq.o ABSOLUTE
    ../Middlewares/Third_Party/RealThread_RTOS/src/kservice.c 0x00000000   Number         0  kservice.o ABSOLUTE
    ../Middlewares/Third_Party/RealThread_RTOS/src/mem.c 0x00000000   Number         0  mem.o ABSOLUTE
    ../Middlewares/Third_Party/RealThread_RTOS/src/memheap.c 0x00000000   Number         0  memheap.o ABSOLUTE
    ../Middlewares/Third_Party/RealThread_RTOS/src/mempool.c 0x00000000   Number         0  mempool.o ABSOLUTE
    ../Middlewares/Third_Party/RealThread_RTOS/src/object.c 0x00000000   Number         0  object.o ABSOLUTE
    ../Middlewares/Third_Party/RealThread_RTOS/src/scheduler.c 0x00000000   Number         0  scheduler.o ABSOLUTE
    ../Middlewares/Third_Party/RealThread_RTOS/src/slab.c 0x00000000   Number         0  slab.o ABSOLUTE
    ../Middlewares/Third_Party/RealThread_RTOS/src/thread.c 0x00000000   Number         0  thread.o ABSOLUTE
    ../Middlewares/Third_Party/RealThread_RTOS/src/timer.c 0x00000000   Number         0  timer.o ABSOLUTE
    ../clib/angel/boardlib.s                 0x00000000   Number         0  boardshut.o ABSOLUTE
    ../clib/angel/boardlib.s                 0x00000000   Number         0  boardinit1.o ABSOLUTE
    ../clib/angel/boardlib.s                 0x00000000   Number         0  boardinit2.o ABSOLUTE
    ../clib/angel/boardlib.s                 0x00000000   Number         0  boardinit3.o ABSOLUTE
    ../clib/angel/handlers.s                 0x00000000   Number         0  __scatter_copy.o ABSOLUTE
    ../clib/angel/handlers.s                 0x00000000   Number         0  __scatter_zi.o ABSOLUTE
    ../clib/angel/kernel.s                   0x00000000   Number         0  __rtentry4.o ABSOLUTE
    ../clib/angel/kernel.s                   0x00000000   Number         0  __rtentry2.o ABSOLUTE
    ../clib/angel/kernel.s                   0x00000000   Number         0  __rtentry.o ABSOLUTE
    ../clib/angel/kernel.s                   0x00000000   Number         0  rtexit.o ABSOLUTE
    ../clib/angel/kernel.s                   0x00000000   Number         0  rtexit2.o ABSOLUTE
    ../clib/angel/rt.s                       0x00000000   Number         0  aeabi_ldiv0_sigfpe.o ABSOLUTE
    ../clib/angel/rt.s                       0x00000000   Number         0  aeabi_ldiv0.o ABSOLUTE
    ../clib/angel/rt.s                       0x00000000   Number         0  rt_div0.o ABSOLUTE
    ../clib/angel/rt.s                       0x00000000   Number         0  rt_raise.o ABSOLUTE
    ../clib/angel/scatter.s                  0x00000000   Number         0  __scatter.o ABSOLUTE
    ../clib/angel/startup.s                  0x00000000   Number         0  __main.o ABSOLUTE
    ../clib/angel/sys.s                      0x00000000   Number         0  libspace.o ABSOLUTE
    ../clib/angel/sys.s                      0x00000000   Number         0  indicate_semi.o ABSOLUTE
    ../clib/angel/sys.s                      0x00000000   Number         0  use_no_semi.o ABSOLUTE
    ../clib/angel/sys.s                      0x00000000   Number         0  sys_stackheap_outer.o ABSOLUTE
    ../clib/angel/sysapp.c                   0x00000000   Number         0  sys_command.o ABSOLUTE
    ../clib/angel/sysapp.c                   0x00000000   Number         0  sys_wrch.o ABSOLUTE
    ../clib/angel/sysapp.c                   0x00000000   Number         0  sys_exit.o ABSOLUTE
    ../clib/armsys.c                         0x00000000   Number         0  no_argv.o ABSOLUTE
    ../clib/armsys.c                         0x00000000   Number         0  _get_argv_nomalloc.o ABSOLUTE
    ../clib/armsys.c                         0x00000000   Number         0  argv_veneer.o ABSOLUTE
    ../clib/armsys.c                         0x00000000   Number         0  argv_veneer.o ABSOLUTE
    ../clib/heapalloc.c                      0x00000000   Number         0  hrguard.o ABSOLUTE
    ../clib/heapaux.c                        0x00000000   Number         0  heapauxi.o ABSOLUTE
    ../clib/libinit.s                        0x00000000   Number         0  libinit2.o ABSOLUTE
    ../clib/libinit.s                        0x00000000   Number         0  libshutdown.o ABSOLUTE
    ../clib/libinit.s                        0x00000000   Number         0  libshutdown2.o ABSOLUTE
    ../clib/libinit.s                        0x00000000   Number         0  libinit.o ABSOLUTE
    ../clib/longlong.s                       0x00000000   Number         0  lludivv7m.o ABSOLUTE
    ../clib/memcpset.s                       0x00000000   Number         0  rt_memclr_w.o ABSOLUTE
    ../clib/signal.c                         0x00000000   Number         0  defsig_segv_inner.o ABSOLUTE
    ../clib/signal.c                         0x00000000   Number         0  defsig_cppl_inner.o ABSOLUTE
    ../clib/signal.c                         0x00000000   Number         0  defsig_pvfn_inner.o ABSOLUTE
    ../clib/signal.c                         0x00000000   Number         0  defsig_stak_inner.o ABSOLUTE
    ../clib/signal.c                         0x00000000   Number         0  defsig_rtmem_outer.o ABSOLUTE
    ../clib/signal.c                         0x00000000   Number         0  defsig_rtmem_inner.o ABSOLUTE
    ../clib/signal.c                         0x00000000   Number         0  defsig_rtred_inner.o ABSOLUTE
    ../clib/signal.c                         0x00000000   Number         0  defsig_abrt_inner.o ABSOLUTE
    ../clib/signal.c                         0x00000000   Number         0  defsig_rtmem_formal.o ABSOLUTE
    ../clib/signal.c                         0x00000000   Number         0  defsig_exit.o ABSOLUTE
    ../clib/signal.c                         0x00000000   Number         0  defsig_fpe_formal.o ABSOLUTE
    ../clib/signal.c                         0x00000000   Number         0  defsig_fpe_outer.o ABSOLUTE
    ../clib/signal.c                         0x00000000   Number         0  defsig_general.o ABSOLUTE
    ../clib/signal.c                         0x00000000   Number         0  __raise.o ABSOLUTE
    ../clib/signal.c                         0x00000000   Number         0  defsig_fpe_inner.o ABSOLUTE
    ../clib/signal.c                         0x00000000   Number         0  defsig_other.o ABSOLUTE
    ../clib/signal.s                         0x00000000   Number         0  defsig.o ABSOLUTE
    ../clib/stdlib.c                         0x00000000   Number         0  exit.o ABSOLUTE
    ../fplib/fpinit.s                        0x00000000   Number         0  fpinit.o ABSOLUTE
    ..\Core\Src\main.c                       0x00000000   Number         0  main.o ABSOLUTE
    ..\Core\Src\stm32f4xx_hal_msp.c          0x00000000   Number         0  stm32f4xx_hal_msp.o ABSOLUTE
    ..\Core\Src\stm32f4xx_it.c               0x00000000   Number         0  stm32f4xx_it.o ABSOLUTE
    ..\Core\Src\system_stm32f4xx.c           0x00000000   Number         0  system_stm32f4xx.o ABSOLUTE
    ..\Drivers\STM32F4xx_HAL_Driver\Src\stm32f4xx_hal.c 0x00000000   Number         0  stm32f4xx_hal.o ABSOLUTE
    ..\Drivers\STM32F4xx_HAL_Driver\Src\stm32f4xx_hal_adc.c 0x00000000   Number         0  stm32f4xx_hal_adc.o ABSOLUTE
    ..\Drivers\STM32F4xx_HAL_Driver\Src\stm32f4xx_hal_adc_ex.c 0x00000000   Number         0  stm32f4xx_hal_adc_ex.o ABSOLUTE
    ..\Drivers\STM32F4xx_HAL_Driver\Src\stm32f4xx_hal_cortex.c 0x00000000   Number         0  stm32f4xx_hal_cortex.o ABSOLUTE
    ..\Drivers\STM32F4xx_HAL_Driver\Src\stm32f4xx_hal_dma.c 0x00000000   Number         0  stm32f4xx_hal_dma.o ABSOLUTE
    ..\Drivers\STM32F4xx_HAL_Driver\Src\stm32f4xx_hal_dma_ex.c 0x00000000   Number         0  stm32f4xx_hal_dma_ex.o ABSOLUTE
    ..\Drivers\STM32F4xx_HAL_Driver\Src\stm32f4xx_hal_exti.c 0x00000000   Number         0  stm32f4xx_hal_exti.o ABSOLUTE
    ..\Drivers\STM32F4xx_HAL_Driver\Src\stm32f4xx_hal_flash.c 0x00000000   Number         0  stm32f4xx_hal_flash.o ABSOLUTE
    ..\Drivers\STM32F4xx_HAL_Driver\Src\stm32f4xx_hal_flash_ex.c 0x00000000   Number         0  stm32f4xx_hal_flash_ex.o ABSOLUTE
    ..\Drivers\STM32F4xx_HAL_Driver\Src\stm32f4xx_hal_flash_ramfunc.c 0x00000000   Number         0  stm32f4xx_hal_flash_ramfunc.o ABSOLUTE
    ..\Drivers\STM32F4xx_HAL_Driver\Src\stm32f4xx_hal_gpio.c 0x00000000   Number         0  stm32f4xx_hal_gpio.o ABSOLUTE
    ..\Drivers\STM32F4xx_HAL_Driver\Src\stm32f4xx_hal_pwr.c 0x00000000   Number         0  stm32f4xx_hal_pwr.o ABSOLUTE
    ..\Drivers\STM32F4xx_HAL_Driver\Src\stm32f4xx_hal_pwr_ex.c 0x00000000   Number         0  stm32f4xx_hal_pwr_ex.o ABSOLUTE
    ..\Drivers\STM32F4xx_HAL_Driver\Src\stm32f4xx_hal_rcc.c 0x00000000   Number         0  stm32f4xx_hal_rcc.o ABSOLUTE
    ..\Drivers\STM32F4xx_HAL_Driver\Src\stm32f4xx_hal_rcc_ex.c 0x00000000   Number         0  stm32f4xx_hal_rcc_ex.o ABSOLUTE
    ..\Drivers\STM32F4xx_HAL_Driver\Src\stm32f4xx_hal_tim.c 0x00000000   Number         0  stm32f4xx_hal_tim.o ABSOLUTE
    ..\Drivers\STM32F4xx_HAL_Driver\Src\stm32f4xx_hal_tim_ex.c 0x00000000   Number         0  stm32f4xx_hal_tim_ex.o ABSOLUTE
    ..\Drivers\STM32F4xx_HAL_Driver\Src\stm32f4xx_hal_uart.c 0x00000000   Number         0  stm32f4xx_hal_uart.o ABSOLUTE
    ..\Middlewares\Third_Party\RealThread_RTOS\bsp\_template\cubemx_config\board.c 0x00000000   Number         0  board.o ABSOLUTE
    ..\SH_APP\Src\EMlight.c                  0x00000000   Number         0  emlight.o ABSOLUTE
    ..\SH_APP\Src\delay.c                    0x00000000   Number         0  delay.o ABSOLUTE
    ..\\SH_APP\\Src\\EMlight.c               0x00000000   Number         0  emlight.o ABSOLUTE
    ..\\SH_APP\\Src\\delay.c                 0x00000000   Number         0  delay.o ABSOLUTE
    dc.s                                     0x00000000   Number         0  dc.o ABSOLUTE
    startup_stm32f401xc.s                    0x00000000   Number         0  startup_stm32f401xc.o ABSOLUTE
    RESET                                    0x08000000   Section      404  startup_stm32f401xc.o(RESET)
    !!!main                                  0x08000194   Section        8  __main.o(!!!main)
    !!!scatter                               0x0800019c   Section       52  __scatter.o(!!!scatter)
    !!handler_copy                           0x080001d0   Section       26  __scatter_copy.o(!!handler_copy)
    !!handler_zi                             0x080001ec   Section       28  __scatter_zi.o(!!handler_zi)
    .ARM.Collect$$libinit$$00000000          0x08000208   Section        2  libinit.o(.ARM.Collect$$libinit$$00000000)
    .ARM.Collect$$libinit$$00000001          0x0800020a   Section        4  libinit2.o(.ARM.Collect$$libinit$$00000001)
    .ARM.Collect$$libinit$$00000004          0x0800020e   Section        0  libinit2.o(.ARM.Collect$$libinit$$00000004)
    .ARM.Collect$$libinit$$0000000A          0x0800020e   Section        0  libinit2.o(.ARM.Collect$$libinit$$0000000A)
    .ARM.Collect$$libinit$$0000000C          0x0800020e   Section        0  libinit2.o(.ARM.Collect$$libinit$$0000000C)
    .ARM.Collect$$libinit$$0000000E          0x0800020e   Section        0  libinit2.o(.ARM.Collect$$libinit$$0000000E)
    .ARM.Collect$$libinit$$00000011          0x0800020e   Section        0  libinit2.o(.ARM.Collect$$libinit$$00000011)
    .ARM.Collect$$libinit$$00000013          0x0800020e   Section        0  libinit2.o(.ARM.Collect$$libinit$$00000013)
    .ARM.Collect$$libinit$$00000015          0x0800020e   Section        0  libinit2.o(.ARM.Collect$$libinit$$00000015)
    .ARM.Collect$$libinit$$00000017          0x0800020e   Section        0  libinit2.o(.ARM.Collect$$libinit$$00000017)
    .ARM.Collect$$libinit$$00000019          0x0800020e   Section        0  libinit2.o(.ARM.Collect$$libinit$$00000019)
    .ARM.Collect$$libinit$$0000001B          0x0800020e   Section        0  libinit2.o(.ARM.Collect$$libinit$$0000001B)
    .ARM.Collect$$libinit$$0000001D          0x0800020e   Section        0  libinit2.o(.ARM.Collect$$libinit$$0000001D)
    .ARM.Collect$$libinit$$0000001F          0x0800020e   Section        0  libinit2.o(.ARM.Collect$$libinit$$0000001F)
    .ARM.Collect$$libinit$$00000021          0x0800020e   Section        0  libinit2.o(.ARM.Collect$$libinit$$00000021)
    .ARM.Collect$$libinit$$00000023          0x0800020e   Section        0  libinit2.o(.ARM.Collect$$libinit$$00000023)
    .ARM.Collect$$libinit$$00000025          0x0800020e   Section        0  libinit2.o(.ARM.Collect$$libinit$$00000025)
    .ARM.Collect$$libinit$$0000002C          0x0800020e   Section        0  libinit2.o(.ARM.Collect$$libinit$$0000002C)
    .ARM.Collect$$libinit$$0000002E          0x0800020e   Section        0  libinit2.o(.ARM.Collect$$libinit$$0000002E)
    .ARM.Collect$$libinit$$00000030          0x0800020e   Section        0  libinit2.o(.ARM.Collect$$libinit$$00000030)
    .ARM.Collect$$libinit$$00000032          0x0800020e   Section        0  libinit2.o(.ARM.Collect$$libinit$$00000032)
    .ARM.Collect$$libinit$$00000033          0x0800020e   Section        2  libinit2.o(.ARM.Collect$$libinit$$00000033)
    .ARM.Collect$$libshutdown$$00000000      0x08000210   Section        2  libshutdown.o(.ARM.Collect$$libshutdown$$00000000)
    .ARM.Collect$$libshutdown$$00000002      0x08000212   Section        0  libshutdown2.o(.ARM.Collect$$libshutdown$$00000002)
    .ARM.Collect$$libshutdown$$00000004      0x08000212   Section        0  libshutdown2.o(.ARM.Collect$$libshutdown$$00000004)
    .ARM.Collect$$libshutdown$$00000007      0x08000212   Section        0  libshutdown2.o(.ARM.Collect$$libshutdown$$00000007)
    .ARM.Collect$$libshutdown$$0000000A      0x08000212   Section        0  libshutdown2.o(.ARM.Collect$$libshutdown$$0000000A)
    .ARM.Collect$$libshutdown$$0000000C      0x08000212   Section        0  libshutdown2.o(.ARM.Collect$$libshutdown$$0000000C)
    .ARM.Collect$$libshutdown$$0000000F      0x08000212   Section        0  libshutdown2.o(.ARM.Collect$$libshutdown$$0000000F)
    .ARM.Collect$$libshutdown$$00000010      0x08000212   Section        2  libshutdown2.o(.ARM.Collect$$libshutdown$$00000010)
    .ARM.Collect$$rtentry$$00000000          0x08000214   Section        0  __rtentry.o(.ARM.Collect$$rtentry$$00000000)
    .ARM.Collect$$rtentry$$00000002          0x08000214   Section        0  __rtentry2.o(.ARM.Collect$$rtentry$$00000002)
    .ARM.Collect$$rtentry$$00000004          0x08000214   Section        6  __rtentry4.o(.ARM.Collect$$rtentry$$00000004)
    .ARM.Collect$$rtentry$$00000009          0x0800021a   Section        0  __rtentry2.o(.ARM.Collect$$rtentry$$00000009)
    .ARM.Collect$$rtentry$$0000000A          0x0800021a   Section        4  __rtentry2.o(.ARM.Collect$$rtentry$$0000000A)
    .ARM.Collect$$rtentry$$0000000C          0x0800021e   Section        0  __rtentry2.o(.ARM.Collect$$rtentry$$0000000C)
    .ARM.Collect$$rtentry$$0000000D          0x0800021e   Section        8  __rtentry2.o(.ARM.Collect$$rtentry$$0000000D)
    .ARM.Collect$$rtexit$$00000000           0x08000226   Section        2  rtexit.o(.ARM.Collect$$rtexit$$00000000)
    .ARM.Collect$$rtexit$$00000002           0x08000228   Section        0  rtexit2.o(.ARM.Collect$$rtexit$$00000002)
    .ARM.Collect$$rtexit$$00000003           0x08000228   Section        4  rtexit2.o(.ARM.Collect$$rtexit$$00000003)
    .ARM.Collect$$rtexit$$00000004           0x0800022c   Section        6  rtexit2.o(.ARM.Collect$$rtexit$$00000004)
    .text                                    0x08000234   Section       64  startup_stm32f401xc.o(.text)
    $v0                                      0x08000234   Number         0  startup_stm32f401xc.o(.text)
    .text                                    0x08000274   Section      308  context_rvds.o(.text)
    $v0                                      0x08000274   Number         0  context_rvds.o(.text)
    .text                                    0x080003a8   Section      238  lludivv7m.o(.text)
    .text                                    0x08000496   Section       78  rt_memclr_w.o(.text)
    .text                                    0x080004e4   Section        0  heapauxi.o(.text)
    .text                                    0x080004ea   Section       74  sys_stackheap_outer.o(.text)
    .text                                    0x08000534   Section        0  exit.o(.text)
    .text                                    0x08000548   Section        8  libspace.o(.text)
    .text                                    0x08000550   Section        0  sys_exit.o(.text)
    .text                                    0x0800055c   Section        2  use_no_semi.o(.text)
    .text                                    0x0800055e   Section        0  indicate_semi.o(.text)
    i.$Sub$$main                             0x0800055e   Section        0  components.o(i.$Sub$$main)
    i.ADC_Init                               0x08000568   Section        0  stm32f4xx_hal_adc.o(i.ADC_Init)
    ADC_Init                                 0x08000569   Thumb Code   284  stm32f4xx_hal_adc.o(i.ADC_Init)
    i.BusFault_Handler                       0x08000690   Section        0  stm32f4xx_it.o(i.BusFault_Handler)
    i.DebugMon_Handler                       0x08000692   Section        0  stm32f4xx_it.o(i.DebugMon_Handler)
    i.EMlight_Display                        0x08000694   Section        0  emlight.o(i.EMlight_Display)
    i.EMlight_Init                           0x080006e4   Section        0  emlight.o(i.EMlight_Init)
    i.HAL_ADC_ConfigChannel                  0x08000718   Section        0  stm32f4xx_hal_adc.o(i.HAL_ADC_ConfigChannel)
    i.HAL_ADC_Init                           0x08000864   Section        0  stm32f4xx_hal_adc.o(i.HAL_ADC_Init)
    i.HAL_ADC_MspInit                        0x080008b8   Section        0  stm32f4xx_hal_msp.o(i.HAL_ADC_MspInit)
    i.HAL_GPIO_Init                          0x0800093c   Section        0  stm32f4xx_hal_gpio.o(i.HAL_GPIO_Init)
    i.HAL_GPIO_WritePin                      0x08000b1c   Section        0  stm32f4xx_hal_gpio.o(i.HAL_GPIO_WritePin)
    i.HAL_GetTick                            0x08000b28   Section        0  delay.o(i.HAL_GetTick)
    i.HAL_Init                               0x08000b44   Section        0  stm32f4xx_hal.o(i.HAL_Init)
    i.HAL_InitTick                           0x08000b78   Section        0  delay.o(i.HAL_InitTick)
    i.HAL_MspInit                            0x08000b9c   Section        0  stm32f4xx_hal_msp.o(i.HAL_MspInit)
    i.HAL_NVIC_SetPriorityGrouping           0x08000bcc   Section        0  stm32f4xx_hal_cortex.o(i.HAL_NVIC_SetPriorityGrouping)
    i.HAL_RCC_ClockConfig                    0x08000bf0   Section        0  stm32f4xx_hal_rcc.o(i.HAL_RCC_ClockConfig)
    i.HAL_RCC_GetHCLKFreq                    0x08000d24   Section        0  stm32f4xx_hal_rcc.o(i.HAL_RCC_GetHCLKFreq)
    i.HAL_RCC_GetPCLK1Freq                   0x08000d30   Section        0  stm32f4xx_hal_rcc.o(i.HAL_RCC_GetPCLK1Freq)
    i.HAL_RCC_GetPCLK2Freq                   0x08000d50   Section        0  stm32f4xx_hal_rcc.o(i.HAL_RCC_GetPCLK2Freq)
    i.HAL_RCC_GetSysClockFreq                0x08000d70   Section        0  stm32f4xx_hal_rcc.o(i.HAL_RCC_GetSysClockFreq)
    i.HAL_RCC_OscConfig                      0x08000dd4   Section        0  stm32f4xx_hal_rcc.o(i.HAL_RCC_OscConfig)
    i.HAL_SYSTICK_Config                     0x08001140   Section        0  stm32f4xx_hal_cortex.o(i.HAL_SYSTICK_Config)
    i.HAL_TIMEx_ConfigBreakDeadTime          0x08001168   Section        0  stm32f4xx_hal_tim_ex.o(i.HAL_TIMEx_ConfigBreakDeadTime)
    i.HAL_TIMEx_MasterConfigSynchronization  0x080011bc   Section        0  stm32f4xx_hal_tim_ex.o(i.HAL_TIMEx_MasterConfigSynchronization)
    i.HAL_TIM_MspPostInit                    0x08001238   Section        0  stm32f4xx_hal_msp.o(i.HAL_TIM_MspPostInit)
    i.HAL_TIM_PWM_ConfigChannel              0x0800135c   Section        0  stm32f4xx_hal_tim.o(i.HAL_TIM_PWM_ConfigChannel)
    i.HAL_TIM_PWM_Init                       0x08001428   Section        0  stm32f4xx_hal_tim.o(i.HAL_TIM_PWM_Init)
    i.HAL_TIM_PWM_MspInit                    0x08001484   Section        0  stm32f4xx_hal_msp.o(i.HAL_TIM_PWM_MspInit)
    i.HAL_UART_Init                          0x08001504   Section        0  stm32f4xx_hal_uart.o(i.HAL_UART_Init)
    i.HAL_UART_MspInit                       0x08001568   Section        0  stm32f4xx_hal_msp.o(i.HAL_UART_MspInit)
    i.HAL_UART_Transmit                      0x080015d4   Section        0  stm32f4xx_hal_uart.o(i.HAL_UART_Transmit)
    i.MX_ADC1_Init                           0x08001688   Section        0  main.o(i.MX_ADC1_Init)
    MX_ADC1_Init                             0x08001689   Thumb Code    88  main.o(i.MX_ADC1_Init)
    i.MX_GPIO_Init                           0x080016ec   Section        0  main.o(i.MX_GPIO_Init)
    MX_GPIO_Init                             0x080016ed   Thumb Code   236  main.o(i.MX_GPIO_Init)
    i.MX_TIM1_Init                           0x080017e8   Section        0  main.o(i.MX_TIM1_Init)
    MX_TIM1_Init                             0x080017e9   Thumb Code   182  main.o(i.MX_TIM1_Init)
    i.MX_TIM2_Init                           0x080018a8   Section        0  main.o(i.MX_TIM2_Init)
    MX_TIM2_Init                             0x080018a9   Thumb Code   134  main.o(i.MX_TIM2_Init)
    i.MX_TIM3_Init                           0x08001934   Section        0  main.o(i.MX_TIM3_Init)
    MX_TIM3_Init                             0x08001935   Thumb Code   134  main.o(i.MX_TIM3_Init)
    i.MX_TIM4_Init                           0x080019c4   Section        0  main.o(i.MX_TIM4_Init)
    MX_TIM4_Init                             0x080019c5   Thumb Code   150  main.o(i.MX_TIM4_Init)
    i.MX_TIM5_Init                           0x08001a64   Section        0  main.o(i.MX_TIM5_Init)
    MX_TIM5_Init                             0x08001a65   Thumb Code   132  main.o(i.MX_TIM5_Init)
    i.MemManage_Handler                      0x08001af0   Section        0  stm32f4xx_it.o(i.MemManage_Handler)
    i.NMI_Handler                            0x08001af2   Section        0  stm32f4xx_it.o(i.NMI_Handler)
    i.SysTick_Handler                        0x08001af4   Section        0  board.o(i.SysTick_Handler)
    i.SystemClock_Config                     0x08001b08   Section        0  main.o(i.SystemClock_Config)
    i.SystemCoreClockUpdate                  0x08001b9c   Section        0  system_stm32f4xx.o(i.SystemCoreClockUpdate)
    i.SystemInit                             0x08001c18   Section        0  system_stm32f4xx.o(i.SystemInit)
    i.TIM_Base_SetConfig                     0x08001c28   Section        0  stm32f4xx_hal_tim.o(i.TIM_Base_SetConfig)
    i.TIM_OC1_SetConfig                      0x08001cc0   Section        0  stm32f4xx_hal_tim.o(i.TIM_OC1_SetConfig)
    TIM_OC1_SetConfig                        0x08001cc1   Thumb Code    74  stm32f4xx_hal_tim.o(i.TIM_OC1_SetConfig)
    i.TIM_OC2_SetConfig                      0x08001d10   Section        0  stm32f4xx_hal_tim.o(i.TIM_OC2_SetConfig)
    i.TIM_OC3_SetConfig                      0x08001d68   Section        0  stm32f4xx_hal_tim.o(i.TIM_OC3_SetConfig)
    TIM_OC3_SetConfig                        0x08001d69   Thumb Code    82  stm32f4xx_hal_tim.o(i.TIM_OC3_SetConfig)
    i.TIM_OC4_SetConfig                      0x08001dc0   Section        0  stm32f4xx_hal_tim.o(i.TIM_OC4_SetConfig)
    TIM_OC4_SetConfig                        0x08001dc1   Thumb Code    64  stm32f4xx_hal_tim.o(i.TIM_OC4_SetConfig)
    i.UART_SetConfig                         0x08001e04   Section        0  stm32f4xx_hal_uart.o(i.UART_SetConfig)
    UART_SetConfig                           0x08001e05   Thumb Code   258  stm32f4xx_hal_uart.o(i.UART_SetConfig)
    i.UART_WaitOnFlagUntilTimeout            0x08001f10   Section        0  stm32f4xx_hal_uart.o(i.UART_WaitOnFlagUntilTimeout)
    UART_WaitOnFlagUntilTimeout              0x08001f11   Thumb Code   120  stm32f4xx_hal_uart.o(i.UART_WaitOnFlagUntilTimeout)
    i.UsageFault_Handler                     0x08001f88   Section        0  stm32f4xx_it.o(i.UsageFault_Handler)
    i.__NVIC_SetPriority                     0x08001f8a   Section        0  stm32f4xx_hal_cortex.o(i.__NVIC_SetPriority)
    __NVIC_SetPriority                       0x08001f8b   Thumb Code    32  stm32f4xx_hal_cortex.o(i.__NVIC_SetPriority)
    i.__rt_ffs                               0x08001fac   Section        0  kservice.o(i.__rt_ffs)
    i._rt_thread_init                        0x08001ff0   Section        0  thread.o(i._rt_thread_init)
    _rt_thread_init                          0x08001ff1   Thumb Code   118  thread.o(i._rt_thread_init)
    i._rt_timer_init                         0x08002070   Section        0  timer.o(i._rt_timer_init)
    _rt_timer_init                           0x08002071   Thumb Code    28  timer.o(i._rt_timer_init)
    i._rt_timer_remove                       0x0800208c   Section        0  timer.o(i._rt_timer_remove)
    _rt_timer_remove                         0x0800208d   Thumb Code     6  timer.o(i._rt_timer_remove)
    i._thread_cleanup_execute                0x08002092   Section        0  thread.o(i._thread_cleanup_execute)
    _thread_cleanup_execute                  0x08002093   Thumb Code    28  thread.o(i._thread_cleanup_execute)
    i.main                                   0x080020b0   Section        0  main.o(i.main)
    i.main_thread_entry                      0x08002154   Section        0  components.o(i.main_thread_entry)
    i.plug_holes                             0x08002164   Section        0  mem.o(i.plug_holes)
    plug_holes                               0x08002165   Thumb Code    80  mem.o(i.plug_holes)
    i.print_number                           0x080021b8   Section        0  kservice.o(i.print_number)
    print_number                             0x080021b9   Thumb Code   300  kservice.o(i.print_number)
    i.rt_application_init                    0x080022e8   Section        0  components.o(i.rt_application_init)
    i.rt_components_board_init               0x08002314   Section        0  components.o(i.rt_components_board_init)
    i.rt_components_init                     0x08002330   Section        0  components.o(i.rt_components_init)
    i.rt_enter_critical                      0x0800234c   Section        0  scheduler.o(i.rt_enter_critical)
    i.rt_exit_critical                       0x08002368   Section        0  scheduler.o(i.rt_exit_critical)
    i.rt_free                                0x080023a0   Section        0  mem.o(i.rt_free)
    i.rt_heap_begin_get                      0x08002464   Section        0  board.o(i.rt_heap_begin_get)
    i.rt_heap_end_get                        0x0800246c   Section        0  board.o(i.rt_heap_end_get)
    i.rt_hw_board_init                       0x08002474   Section        0  board.o(i.rt_hw_board_init)
    i.rt_hw_console_output                   0x080024ac   Section        0  board.o(i.rt_hw_console_output)
    i.rt_hw_hard_fault_exception             0x080024f4   Section        0  cpuport.o(i.rt_hw_hard_fault_exception)
    i.rt_hw_stack_init                       0x08002704   Section        0  cpuport.o(i.rt_hw_stack_init)
    i.rt_interrupt_enter                     0x08002740   Section        0  irq.o(i.rt_interrupt_enter)
    i.rt_interrupt_leave                     0x0800275c   Section        0  irq.o(i.rt_interrupt_leave)
    i.rt_kprintf                             0x08002778   Section        0  kservice.o(i.rt_kprintf)
    i.rt_list_insert_after                   0x08002798   Section        0  object.o(i.rt_list_insert_after)
    rt_list_insert_after                     0x08002799   Thumb Code    14  object.o(i.rt_list_insert_after)
    i.rt_list_insert_after                   0x080027a6   Section        0  thread.o(i.rt_list_insert_after)
    rt_list_insert_after                     0x080027a7   Thumb Code    14  thread.o(i.rt_list_insert_after)
    i.rt_list_insert_after                   0x080027b4   Section        0  timer.o(i.rt_list_insert_after)
    rt_list_insert_after                     0x080027b5   Thumb Code    14  timer.o(i.rt_list_insert_after)
    i.rt_list_insert_before                  0x080027c2   Section        0  ipc.o(i.rt_list_insert_before)
    rt_list_insert_before                    0x080027c3   Thumb Code    14  ipc.o(i.rt_list_insert_before)
    i.rt_list_remove                         0x080027d0   Section        0  object.o(i.rt_list_remove)
    rt_list_remove                           0x080027d1   Thumb Code    18  object.o(i.rt_list_remove)
    i.rt_list_remove                         0x080027e2   Section        0  thread.o(i.rt_list_remove)
    rt_list_remove                           0x080027e3   Thumb Code    18  thread.o(i.rt_list_remove)
    i.rt_list_remove                         0x080027f4   Section        0  timer.o(i.rt_list_remove)
    rt_list_remove                           0x080027f5   Thumb Code    18  timer.o(i.rt_list_remove)
    i.rt_malloc                              0x08002808   Section        0  mem.o(i.rt_malloc)
    i.rt_memset                              0x080028f8   Section        0  kservice.o(i.rt_memset)
    i.rt_object_allocate                     0x0800293e   Section        0  object.o(i.rt_object_allocate)
    i.rt_object_delete                       0x0800298e   Section        0  object.o(i.rt_object_delete)
    i.rt_object_detach                       0x080029b4   Section        0  object.o(i.rt_object_detach)
    i.rt_object_get_information              0x080029d4   Section        0  object.o(i.rt_object_get_information)
    i.rt_object_init                         0x080029f8   Section        0  object.o(i.rt_object_init)
    i.rt_object_is_systemobject              0x08002a48   Section        0  object.o(i.rt_object_is_systemobject)
    i.rt_schedule                            0x08002a58   Section        0  scheduler.o(i.rt_schedule)
    i.rt_schedule_insert_thread              0x08002ab0   Section        0  scheduler.o(i.rt_schedule_insert_thread)
    i.rt_schedule_remove_thread              0x08002b00   Section        0  scheduler.o(i.rt_schedule_remove_thread)
    i.rt_sem_init                            0x08002b48   Section        0  ipc.o(i.rt_sem_init)
    i.rt_sem_release                         0x08002b6c   Section        0  ipc.o(i.rt_sem_release)
    i.rt_sem_take                            0x08002bb6   Section        0  ipc.o(i.rt_sem_take)
    i.rt_show_version                        0x08002c64   Section        0  kservice.o(i.rt_show_version)
    i.rt_strlen                              0x08002d14   Section        0  kservice.o(i.rt_strlen)
    i.rt_strncpy                             0x08002d24   Section        0  kservice.o(i.rt_strncpy)
    i.rt_system_heap_init                    0x08002d4c   Section        0  mem.o(i.rt_system_heap_init)
    i.rt_system_scheduler_init               0x08002df8   Section        0  scheduler.o(i.rt_system_scheduler_init)
    i.rt_system_scheduler_start              0x08002e2c   Section        0  scheduler.o(i.rt_system_scheduler_start)
    i.rt_system_timer_init                   0x08002e54   Section        0  timer.o(i.rt_system_timer_init)
    i.rt_system_timer_thread_init            0x08002e60   Section        0  timer.o(i.rt_system_timer_thread_init)
    i.rt_thread_create                       0x08002e62   Section        0  thread.o(i.rt_thread_create)
    i.rt_thread_exit                         0x08002eac   Section        0  thread.o(i.rt_thread_exit)
    i.rt_thread_idle_entry                   0x08002f08   Section        0  idle.o(i.rt_thread_idle_entry)
    rt_thread_idle_entry                     0x08002f09   Thumb Code     6  idle.o(i.rt_thread_idle_entry)
    i.rt_thread_idle_excute                  0x08002f10   Section        0  idle.o(i.rt_thread_idle_excute)
    i.rt_thread_idle_init                    0x08002f5c   Section        0  idle.o(i.rt_thread_idle_init)
    i.rt_thread_init                         0x08002f94   Section        0  thread.o(i.rt_thread_init)
    i.rt_thread_mdelay                       0x08002fc4   Section        0  thread.o(i.rt_thread_mdelay)
    i.rt_thread_resume                       0x08002fd2   Section        0  thread.o(i.rt_thread_resume)
    i.rt_thread_self                         0x08003010   Section        0  thread.o(i.rt_thread_self)
    i.rt_thread_sleep                        0x0800301c   Section        0  thread.o(i.rt_thread_sleep)
    i.rt_thread_startup                      0x0800305c   Section        0  thread.o(i.rt_thread_startup)
    i.rt_thread_suspend                      0x08003088   Section        0  thread.o(i.rt_thread_suspend)
    i.rt_thread_timeout                      0x080030ca   Section        0  thread.o(i.rt_thread_timeout)
    i.rt_thread_yield                        0x080030ec   Section        0  thread.o(i.rt_thread_yield)
    i.rt_tick_from_millisecond               0x0800314c   Section        0  clock.o(i.rt_tick_from_millisecond)
    i.rt_tick_get                            0x08003180   Section        0  clock.o(i.rt_tick_get)
    i.rt_tick_increase                       0x0800318c   Section        0  clock.o(i.rt_tick_increase)
    i.rt_timer_check                         0x080031b8   Section        0  timer.o(i.rt_timer_check)
    i.rt_timer_control                       0x08003244   Section        0  timer.o(i.rt_timer_control)
    i.rt_timer_detach                        0x0800328c   Section        0  timer.o(i.rt_timer_detach)
    i.rt_timer_init                          0x080032b4   Section        0  timer.o(i.rt_timer_init)
    i.rt_timer_start                         0x080032dc   Section        0  timer.o(i.rt_timer_start)
    i.rt_timer_stop                          0x08003360   Section        0  timer.o(i.rt_timer_stop)
    i.rt_vsnprintf                           0x08003390   Section        0  kservice.o(i.rt_vsnprintf)
    i.rti_board_end                          0x08003614   Section        0  components.o(i.rti_board_end)
    rti_board_end                            0x08003615   Thumb Code     4  components.o(i.rti_board_end)
    i.rti_board_start                        0x08003618   Section        0  components.o(i.rti_board_start)
    rti_board_start                          0x08003619   Thumb Code     4  components.o(i.rti_board_start)
    i.rti_end                                0x0800361c   Section        0  components.o(i.rti_end)
    rti_end                                  0x0800361d   Thumb Code     4  components.o(i.rti_end)
    i.rti_start                              0x08003620   Section        0  components.o(i.rti_start)
    rti_start                                0x08003621   Thumb Code     4  components.o(i.rti_start)
    i.rtthread_startup                       0x08003624   Section        0  components.o(i.rtthread_startup)
    i.skip_atoi                              0x0800364e   Section        0  kservice.o(i.skip_atoi)
    skip_atoi                                0x0800364f   Thumb Code    40  kservice.o(i.skip_atoi)
    i.uart_init                              0x08003678   Section        0  board.o(i.uart_init)
    uart_init                                0x08003679   Thumb Code    42  board.o(i.uart_init)
    x$fpl$fpinit                             0x080036ac   Section       10  fpinit.o(x$fpl$fpinit)
    $v0                                      0x080036ac   Number         0  fpinit.o(x$fpl$fpinit)
    .constdata                               0x080036b6   Section       16  system_stm32f4xx.o(.constdata)
    .constdata                               0x080036c6   Section        8  system_stm32f4xx.o(.constdata)
    .constdata                               0x080036ce   Section      290  kservice.o(.constdata)
    small_digits                             0x080037ce   Data          17  kservice.o(.constdata)
    large_digits                             0x080037df   Data          17  kservice.o(.constdata)
    .rti_fn.0                                0x080037f0   Section        4  components.o(.rti_fn.0)
    __tagsym$$used                           0x080037f0   Number         0  components.o(.rti_fn.0)
    .rti_fn.0.end                            0x080037f4   Section        4  components.o(.rti_fn.0.end)
    __tagsym$$used                           0x080037f4   Number         0  components.o(.rti_fn.0.end)
    .rti_fn.1                                0x080037f8   Section        4  board.o(.rti_fn.1)
    __tagsym$$used                           0x080037f8   Number         0  board.o(.rti_fn.1)
    .rti_fn.1.end                            0x080037fc   Section        4  components.o(.rti_fn.1.end)
    __tagsym$$used                           0x080037fc   Number         0  components.o(.rti_fn.1.end)
    .rti_fn.6.end                            0x08003800   Section        4  components.o(.rti_fn.6.end)
    __tagsym$$used                           0x08003800   Number         0  components.o(.rti_fn.6.end)
    .data                                    0x20000000   Section       12  stm32f4xx_hal.o(.data)
    .data                                    0x2000000c   Section        4  system_stm32f4xx.o(.data)
    .data                                    0x20000010   Section        4  clock.o(.data)
    rt_tick                                  0x20000010   Data           4  clock.o(.data)
    .data                                    0x20000014   Section        1  irq.o(.data)
    .data                                    0x20000018   Section       24  mem.o(.data)
    heap_ptr                                 0x20000018   Data           4  mem.o(.data)
    heap_end                                 0x2000001c   Data           4  mem.o(.data)
    lfree                                    0x20000020   Data           4  mem.o(.data)
    mem_size_aligned                         0x20000024   Data           4  mem.o(.data)
    used_mem                                 0x20000028   Data           4  mem.o(.data)
    max_mem                                  0x2000002c   Data           4  mem.o(.data)
    .data                                    0x20000030   Section       48  object.o(.data)
    rt_object_container                      0x20000030   Data          48  object.o(.data)
    .data                                    0x20000060   Section       20  scheduler.o(.data)
    rt_scheduler_lock_nest                   0x20000062   Data           2  scheduler.o(.data)
    .data                                    0x20000074   Section       12  timer.o(.data)
    random_nr                                0x20000074   Data           4  timer.o(.data)
    rt_timer_list                            0x20000078   Data           8  timer.o(.data)
    .data                                    0x20000080   Section        4  cpuport.o(.data)
    rt_exception_hook                        0x20000080   Data           4  cpuport.o(.data)
    .data                                    0x20000084   Section        4  cpuport.o(.data)
    .data                                    0x20000088   Section        4  cpuport.o(.data)
    .data                                    0x2000008c   Section        4  cpuport.o(.data)
    .bss                                     0x20000090   Section      500  main.o(.bss)
    .bss                                     0x20000284   Section      376  idle.o(.bss)
    idle                                     0x20000284   Data         120  idle.o(.bss)
    rt_thread_stack                          0x200002fc   Data         256  idle.o(.bss)
    .bss                                     0x200003fc   Section      128  kservice.o(.bss)
    rt_log_buf                               0x200003fc   Data         128  kservice.o(.bss)
    .bss                                     0x2000047c   Section       32  mem.o(.bss)
    heap_sem                                 0x2000047c   Data          32  mem.o(.bss)
    .bss                                     0x2000049c   Section      256  scheduler.o(.bss)
    .bss                                     0x2000059c   Section    15428  board.o(.bss)
    rt_heap                                  0x2000059c   Data       15360  board.o(.bss)
    UartHandle                               0x2000419c   Data          68  board.o(.bss)
    .bss                                     0x200041e0   Section       96  libspace.o(.bss)
    HEAP                                     0x20004240   Section      512  startup_stm32f401xc.o(HEAP)
    Heap_Mem                                 0x20004240   Data         512  startup_stm32f401xc.o(HEAP)
    STACK                                    0x20004440   Section     1024  startup_stm32f401xc.o(STACK)
    Stack_Mem                                0x20004440   Data        1024  startup_stm32f401xc.o(STACK)
    __initial_sp                             0x20004840   Data           0  startup_stm32f401xc.o(STACK)

    Global Symbols

    Symbol Name                              Value     Ov Type        Size  Object(Section)

    BuildAttributes$$THM_ISAv4$E$P$D$K$B$S$7EM$VFPi3$EXTD16$VFPS$VFMA$PE$A:L22UL41UL21$X:L11$S22US41US21$IEEE1$IW$USESV6$~STKCKD$USESV7$~SHL$OSPACE$ROPI$EBA8$UX$STANDARDLIB$REQ8$PRES8$EABIv2 0x00000000   Number         0  anon$$obj.o ABSOLUTE
    __ARM_use_no_argv                        0x00000000   Number         0  main.o ABSOLUTE
    __ARM_exceptions_init                     - Undefined Weak Reference
    __alloca_initialize                       - Undefined Weak Reference
    __arm_preinit_                            - Undefined Weak Reference
    __cpp_initialize__aeabi_                  - Undefined Weak Reference
    __cxa_finalize                            - Undefined Weak Reference
    __rt_locale                               - Undefined Weak Reference
    __sigvec_lookup                           - Undefined Weak Reference
    _atexit_init                              - Undefined Weak Reference
    _call_atexit_fns                          - Undefined Weak Reference
    _clock_init                               - Undefined Weak Reference
    _fp_trap_init                             - Undefined Weak Reference
    _fp_trap_shutdown                         - Undefined Weak Reference
    _get_lc_collate                           - Undefined Weak Reference
    _get_lc_ctype                             - Undefined Weak Reference
    _get_lc_monetary                          - Undefined Weak Reference
    _get_lc_numeric                           - Undefined Weak Reference
    _get_lc_time                              - Undefined Weak Reference
    _getenv_init                              - Undefined Weak Reference
    _handle_redirection                       - Undefined Weak Reference
    _init_alloc                               - Undefined Weak Reference
    _init_user_alloc                          - Undefined Weak Reference
    _initio                                   - Undefined Weak Reference
    _rand_init                                - Undefined Weak Reference
    _signal_finish                            - Undefined Weak Reference
    _signal_init                              - Undefined Weak Reference
    _terminate_alloc                          - Undefined Weak Reference
    _terminate_user_alloc                     - Undefined Weak Reference
    _terminateio                              - Undefined Weak Reference
    __Vectors_Size                           0x00000194   Number         0  startup_stm32f401xc.o ABSOLUTE
    __Vectors                                0x08000000   Data           4  startup_stm32f401xc.o(RESET)
    __Vectors_End                            0x08000194   Data           0  startup_stm32f401xc.o(RESET)
    __main                                   0x08000195   Thumb Code     8  __main.o(!!!main)
    __scatterload                            0x0800019d   Thumb Code     0  __scatter.o(!!!scatter)
    __scatterload_rt2                        0x0800019d   Thumb Code    44  __scatter.o(!!!scatter)
    __scatterload_rt2_thumb_only             0x0800019d   Thumb Code     0  __scatter.o(!!!scatter)
    __scatterload_null                       0x080001ab   Thumb Code     0  __scatter.o(!!!scatter)
    __scatterload_copy                       0x080001d1   Thumb Code    26  __scatter_copy.o(!!handler_copy)
    __scatterload_zeroinit                   0x080001ed   Thumb Code    28  __scatter_zi.o(!!handler_zi)
    __rt_lib_init                            0x08000209   Thumb Code     0  libinit.o(.ARM.Collect$$libinit$$00000000)
    __rt_lib_init_fp_1                       0x0800020b   Thumb Code     0  libinit2.o(.ARM.Collect$$libinit$$00000001)
    __rt_lib_init_alloca_1                   0x0800020f   Thumb Code     0  libinit2.o(.ARM.Collect$$libinit$$0000002E)
    __rt_lib_init_argv_1                     0x0800020f   Thumb Code     0  libinit2.o(.ARM.Collect$$libinit$$0000002C)
    __rt_lib_init_atexit_1                   0x0800020f   Thumb Code     0  libinit2.o(.ARM.Collect$$libinit$$0000001B)
    __rt_lib_init_clock_1                    0x0800020f   Thumb Code     0  libinit2.o(.ARM.Collect$$libinit$$00000021)
    __rt_lib_init_cpp_1                      0x0800020f   Thumb Code     0  libinit2.o(.ARM.Collect$$libinit$$00000032)
    __rt_lib_init_exceptions_1               0x0800020f   Thumb Code     0  libinit2.o(.ARM.Collect$$libinit$$00000030)
    __rt_lib_init_fp_trap_1                  0x0800020f   Thumb Code     0  libinit2.o(.ARM.Collect$$libinit$$0000001F)
    __rt_lib_init_getenv_1                   0x0800020f   Thumb Code     0  libinit2.o(.ARM.Collect$$libinit$$00000023)
    __rt_lib_init_heap_1                     0x0800020f   Thumb Code     0  libinit2.o(.ARM.Collect$$libinit$$0000000A)
    __rt_lib_init_lc_collate_1               0x0800020f   Thumb Code     0  libinit2.o(.ARM.Collect$$libinit$$00000011)
    __rt_lib_init_lc_ctype_1                 0x0800020f   Thumb Code     0  libinit2.o(.ARM.Collect$$libinit$$00000013)
    __rt_lib_init_lc_monetary_1              0x0800020f   Thumb Code     0  libinit2.o(.ARM.Collect$$libinit$$00000015)
    __rt_lib_init_lc_numeric_1               0x0800020f   Thumb Code     0  libinit2.o(.ARM.Collect$$libinit$$00000017)
    __rt_lib_init_lc_time_1                  0x0800020f   Thumb Code     0  libinit2.o(.ARM.Collect$$libinit$$00000019)
    __rt_lib_init_preinit_1                  0x0800020f   Thumb Code     0  libinit2.o(.ARM.Collect$$libinit$$00000004)
    __rt_lib_init_rand_1                     0x0800020f   Thumb Code     0  libinit2.o(.ARM.Collect$$libinit$$0000000E)
    __rt_lib_init_return                     0x0800020f   Thumb Code     0  libinit2.o(.ARM.Collect$$libinit$$00000033)
    __rt_lib_init_signal_1                   0x0800020f   Thumb Code     0  libinit2.o(.ARM.Collect$$libinit$$0000001D)
    __rt_lib_init_stdio_1                    0x0800020f   Thumb Code     0  libinit2.o(.ARM.Collect$$libinit$$00000025)
    __rt_lib_init_user_alloc_1               0x0800020f   Thumb Code     0  libinit2.o(.ARM.Collect$$libinit$$0000000C)
    __rt_lib_shutdown                        0x08000211   Thumb Code     0  libshutdown.o(.ARM.Collect$$libshutdown$$00000000)
    __rt_lib_shutdown_cpp_1                  0x08000213   Thumb Code     0  libshutdown2.o(.ARM.Collect$$libshutdown$$00000002)
    __rt_lib_shutdown_fp_trap_1              0x08000213   Thumb Code     0  libshutdown2.o(.ARM.Collect$$libshutdown$$00000007)
    __rt_lib_shutdown_heap_1                 0x08000213   Thumb Code     0  libshutdown2.o(.ARM.Collect$$libshutdown$$0000000F)
    __rt_lib_shutdown_return                 0x08000213   Thumb Code     0  libshutdown2.o(.ARM.Collect$$libshutdown$$00000010)
    __rt_lib_shutdown_signal_1               0x08000213   Thumb Code     0  libshutdown2.o(.ARM.Collect$$libshutdown$$0000000A)
    __rt_lib_shutdown_stdio_1                0x08000213   Thumb Code     0  libshutdown2.o(.ARM.Collect$$libshutdown$$00000004)
    __rt_lib_shutdown_user_alloc_1           0x08000213   Thumb Code     0  libshutdown2.o(.ARM.Collect$$libshutdown$$0000000C)
    __rt_entry                               0x08000215   Thumb Code     0  __rtentry.o(.ARM.Collect$$rtentry$$00000000)
    __rt_entry_presh_1                       0x08000215   Thumb Code     0  __rtentry2.o(.ARM.Collect$$rtentry$$00000002)
    __rt_entry_sh                            0x08000215   Thumb Code     0  __rtentry4.o(.ARM.Collect$$rtentry$$00000004)
    __rt_entry_li                            0x0800021b   Thumb Code     0  __rtentry2.o(.ARM.Collect$$rtentry$$0000000A)
    __rt_entry_postsh_1                      0x0800021b   Thumb Code     0  __rtentry2.o(.ARM.Collect$$rtentry$$00000009)
    __rt_entry_main                          0x0800021f   Thumb Code     0  __rtentry2.o(.ARM.Collect$$rtentry$$0000000D)
    __rt_entry_postli_1                      0x0800021f   Thumb Code     0  __rtentry2.o(.ARM.Collect$$rtentry$$0000000C)
    __rt_exit                                0x08000227   Thumb Code     0  rtexit.o(.ARM.Collect$$rtexit$$00000000)
    __rt_exit_ls                             0x08000229   Thumb Code     0  rtexit2.o(.ARM.Collect$$rtexit$$00000003)
    __rt_exit_prels_1                        0x08000229   Thumb Code     0  rtexit2.o(.ARM.Collect$$rtexit$$00000002)
    __rt_exit_exit                           0x0800022d   Thumb Code     0  rtexit2.o(.ARM.Collect$$rtexit$$00000004)
    Reset_Handler                            0x08000235   Thumb Code     8  startup_stm32f401xc.o(.text)
    SVC_Handler                              0x08000247   Thumb Code     2  startup_stm32f401xc.o(.text)
    ADC_IRQHandler                           0x0800024f   Thumb Code     0  startup_stm32f401xc.o(.text)
    DMA1_Stream0_IRQHandler                  0x0800024f   Thumb Code     0  startup_stm32f401xc.o(.text)
    DMA1_Stream1_IRQHandler                  0x0800024f   Thumb Code     0  startup_stm32f401xc.o(.text)
    DMA1_Stream2_IRQHandler                  0x0800024f   Thumb Code     0  startup_stm32f401xc.o(.text)
    DMA1_Stream3_IRQHandler                  0x0800024f   Thumb Code     0  startup_stm32f401xc.o(.text)
    DMA1_Stream4_IRQHandler                  0x0800024f   Thumb Code     0  startup_stm32f401xc.o(.text)
    DMA1_Stream5_IRQHandler                  0x0800024f   Thumb Code     0  startup_stm32f401xc.o(.text)
    DMA1_Stream6_IRQHandler                  0x0800024f   Thumb Code     0  startup_stm32f401xc.o(.text)
    DMA1_Stream7_IRQHandler                  0x0800024f   Thumb Code     0  startup_stm32f401xc.o(.text)
    DMA2_Stream0_IRQHandler                  0x0800024f   Thumb Code     0  startup_stm32f401xc.o(.text)
    DMA2_Stream1_IRQHandler                  0x0800024f   Thumb Code     0  startup_stm32f401xc.o(.text)
    DMA2_Stream2_IRQHandler                  0x0800024f   Thumb Code     0  startup_stm32f401xc.o(.text)
    DMA2_Stream3_IRQHandler                  0x0800024f   Thumb Code     0  startup_stm32f401xc.o(.text)
    DMA2_Stream4_IRQHandler                  0x0800024f   Thumb Code     0  startup_stm32f401xc.o(.text)
    DMA2_Stream5_IRQHandler                  0x0800024f   Thumb Code     0  startup_stm32f401xc.o(.text)
    DMA2_Stream6_IRQHandler                  0x0800024f   Thumb Code     0  startup_stm32f401xc.o(.text)
    DMA2_Stream7_IRQHandler                  0x0800024f   Thumb Code     0  startup_stm32f401xc.o(.text)
    EXTI0_IRQHandler                         0x0800024f   Thumb Code     0  startup_stm32f401xc.o(.text)
    EXTI15_10_IRQHandler                     0x0800024f   Thumb Code     0  startup_stm32f401xc.o(.text)
    EXTI1_IRQHandler                         0x0800024f   Thumb Code     0  startup_stm32f401xc.o(.text)
    EXTI2_IRQHandler                         0x0800024f   Thumb Code     0  startup_stm32f401xc.o(.text)
    EXTI3_IRQHandler                         0x0800024f   Thumb Code     0  startup_stm32f401xc.o(.text)
    EXTI4_IRQHandler                         0x0800024f   Thumb Code     0  startup_stm32f401xc.o(.text)
    EXTI9_5_IRQHandler                       0x0800024f   Thumb Code     0  startup_stm32f401xc.o(.text)
    FLASH_IRQHandler                         0x0800024f   Thumb Code     0  startup_stm32f401xc.o(.text)
    FPU_IRQHandler                           0x0800024f   Thumb Code     0  startup_stm32f401xc.o(.text)
    I2C1_ER_IRQHandler                       0x0800024f   Thumb Code     0  startup_stm32f401xc.o(.text)
    I2C1_EV_IRQHandler                       0x0800024f   Thumb Code     0  startup_stm32f401xc.o(.text)
    I2C2_ER_IRQHandler                       0x0800024f   Thumb Code     0  startup_stm32f401xc.o(.text)
    I2C2_EV_IRQHandler                       0x0800024f   Thumb Code     0  startup_stm32f401xc.o(.text)
    I2C3_ER_IRQHandler                       0x0800024f   Thumb Code     0  startup_stm32f401xc.o(.text)
    I2C3_EV_IRQHandler                       0x0800024f   Thumb Code     0  startup_stm32f401xc.o(.text)
    OTG_FS_IRQHandler                        0x0800024f   Thumb Code     0  startup_stm32f401xc.o(.text)
    OTG_FS_WKUP_IRQHandler                   0x0800024f   Thumb Code     0  startup_stm32f401xc.o(.text)
    PVD_IRQHandler                           0x0800024f   Thumb Code     0  startup_stm32f401xc.o(.text)
    RCC_IRQHandler                           0x0800024f   Thumb Code     0  startup_stm32f401xc.o(.text)
    RTC_Alarm_IRQHandler                     0x0800024f   Thumb Code     0  startup_stm32f401xc.o(.text)
    RTC_WKUP_IRQHandler                      0x0800024f   Thumb Code     0  startup_stm32f401xc.o(.text)
    SDIO_IRQHandler                          0x0800024f   Thumb Code     0  startup_stm32f401xc.o(.text)
    SPI1_IRQHandler                          0x0800024f   Thumb Code     0  startup_stm32f401xc.o(.text)
    SPI2_IRQHandler                          0x0800024f   Thumb Code     0  startup_stm32f401xc.o(.text)
    SPI3_IRQHandler                          0x0800024f   Thumb Code     0  startup_stm32f401xc.o(.text)
    SPI4_IRQHandler                          0x0800024f   Thumb Code     0  startup_stm32f401xc.o(.text)
    TAMP_STAMP_IRQHandler                    0x0800024f   Thumb Code     0  startup_stm32f401xc.o(.text)
    TIM1_BRK_TIM9_IRQHandler                 0x0800024f   Thumb Code     0  startup_stm32f401xc.o(.text)
    TIM1_CC_IRQHandler                       0x0800024f   Thumb Code     0  startup_stm32f401xc.o(.text)
    TIM1_TRG_COM_TIM11_IRQHandler            0x0800024f   Thumb Code     0  startup_stm32f401xc.o(.text)
    TIM1_UP_TIM10_IRQHandler                 0x0800024f   Thumb Code     0  startup_stm32f401xc.o(.text)
    TIM2_IRQHandler                          0x0800024f   Thumb Code     0  startup_stm32f401xc.o(.text)
    TIM3_IRQHandler                          0x0800024f   Thumb Code     0  startup_stm32f401xc.o(.text)
    TIM4_IRQHandler                          0x0800024f   Thumb Code     0  startup_stm32f401xc.o(.text)
    TIM5_IRQHandler                          0x0800024f   Thumb Code     0  startup_stm32f401xc.o(.text)
    USART1_IRQHandler                        0x0800024f   Thumb Code     0  startup_stm32f401xc.o(.text)
    USART2_IRQHandler                        0x0800024f   Thumb Code     0  startup_stm32f401xc.o(.text)
    USART6_IRQHandler                        0x0800024f   Thumb Code     0  startup_stm32f401xc.o(.text)
    WWDG_IRQHandler                          0x0800024f   Thumb Code     0  startup_stm32f401xc.o(.text)
    __user_initial_stackheap                 0x08000251   Thumb Code     0  startup_stm32f401xc.o(.text)
    rt_hw_interrupt_disable                  0x08000275   Thumb Code     8  context_rvds.o(.text)
    rt_hw_interrupt_enable                   0x0800027d   Thumb Code     6  context_rvds.o(.text)
    rt_hw_context_switch                     0x08000283   Thumb Code    32  context_rvds.o(.text)
    rt_hw_context_switch_interrupt           0x08000283   Thumb Code     0  context_rvds.o(.text)
    PendSV_Handler                           0x080002a3   Thumb Code   108  context_rvds.o(.text)
    rt_hw_context_switch_to                  0x0800030f   Thumb Code    68  context_rvds.o(.text)
    rt_hw_interrupt_thread_switch            0x08000353   Thumb Code     2  context_rvds.o(.text)
    HardFault_Handler                        0x08000355   Thumb Code    56  context_rvds.o(.text)
    __aeabi_uldivmod                         0x080003a9   Thumb Code     0  lludivv7m.o(.text)
    _ll_udiv                                 0x080003a9   Thumb Code   238  lludivv7m.o(.text)
    __aeabi_memclr4                          0x08000497   Thumb Code     0  rt_memclr_w.o(.text)
    __aeabi_memclr8                          0x08000497   Thumb Code     0  rt_memclr_w.o(.text)
    __rt_memclr_w                            0x08000497   Thumb Code    78  rt_memclr_w.o(.text)
    _memset_w                                0x0800049b   Thumb Code     0  rt_memclr_w.o(.text)
    __use_two_region_memory                  0x080004e5   Thumb Code     2  heapauxi.o(.text)
    __rt_heap_escrow$2region                 0x080004e7   Thumb Code     2  heapauxi.o(.text)
    __rt_heap_expand$2region                 0x080004e9   Thumb Code     2  heapauxi.o(.text)
    __user_setup_stackheap                   0x080004eb   Thumb Code    74  sys_stackheap_outer.o(.text)
    exit                                     0x08000535   Thumb Code    18  exit.o(.text)
    __user_libspace                          0x08000549   Thumb Code     8  libspace.o(.text)
    __user_perproc_libspace                  0x08000549   Thumb Code     0  libspace.o(.text)
    __user_perthread_libspace                0x08000549   Thumb Code     0  libspace.o(.text)
    _sys_exit                                0x08000551   Thumb Code     8  sys_exit.o(.text)
    __I$use$semihosting                      0x0800055d   Thumb Code     0  use_no_semi.o(.text)
    __use_no_semihosting_swi                 0x0800055d   Thumb Code     2  use_no_semi.o(.text)
    __semihosting_library_function           0x0800055f   Thumb Code     0  indicate_semi.o(.text)
    main                                     0x0800055f   Thumb Code    10  components.o(i.$Sub$$main)
    BusFault_Handler                         0x08000691   Thumb Code     2  stm32f4xx_it.o(i.BusFault_Handler)
    DebugMon_Handler                         0x08000693   Thumb Code     2  stm32f4xx_it.o(i.DebugMon_Handler)
    EMlight_Display                          0x08000695   Thumb Code    74  emlight.o(i.EMlight_Display)
    EMlight_Init                             0x080006e5   Thumb Code    30  emlight.o(i.EMlight_Init)
    HAL_ADC_ConfigChannel                    0x08000719   Thumb Code   316  stm32f4xx_hal_adc.o(i.HAL_ADC_ConfigChannel)
    HAL_ADC_Init                             0x08000865   Thumb Code    84  stm32f4xx_hal_adc.o(i.HAL_ADC_Init)
    HAL_ADC_MspInit                          0x080008b9   Thumb Code   116  stm32f4xx_hal_msp.o(i.HAL_ADC_MspInit)
    HAL_GPIO_Init                            0x0800093d   Thumb Code   446  stm32f4xx_hal_gpio.o(i.HAL_GPIO_Init)
    HAL_GPIO_WritePin                        0x08000b1d   Thumb Code    10  stm32f4xx_hal_gpio.o(i.HAL_GPIO_WritePin)
    HAL_GetTick                              0x08000b29   Thumb Code    18  delay.o(i.HAL_GetTick)
    HAL_Init                                 0x08000b45   Thumb Code    48  stm32f4xx_hal.o(i.HAL_Init)
    HAL_InitTick                             0x08000b79   Thumb Code    28  delay.o(i.HAL_InitTick)
    HAL_MspInit                              0x08000b9d   Thumb Code    42  stm32f4xx_hal_msp.o(i.HAL_MspInit)
    HAL_NVIC_SetPriorityGrouping             0x08000bcd   Thumb Code    26  stm32f4xx_hal_cortex.o(i.HAL_NVIC_SetPriorityGrouping)
    HAL_RCC_ClockConfig                      0x08000bf1   Thumb Code   288  stm32f4xx_hal_rcc.o(i.HAL_RCC_ClockConfig)
    HAL_RCC_GetHCLKFreq                      0x08000d25   Thumb Code     6  stm32f4xx_hal_rcc.o(i.HAL_RCC_GetHCLKFreq)
    HAL_RCC_GetPCLK1Freq                     0x08000d31   Thumb Code    20  stm32f4xx_hal_rcc.o(i.HAL_RCC_GetPCLK1Freq)
    HAL_RCC_GetPCLK2Freq                     0x08000d51   Thumb Code    20  stm32f4xx_hal_rcc.o(i.HAL_RCC_GetPCLK2Freq)
    HAL_RCC_GetSysClockFreq                  0x08000d71   Thumb Code    88  stm32f4xx_hal_rcc.o(i.HAL_RCC_GetSysClockFreq)
    HAL_RCC_OscConfig                        0x08000dd5   Thumb Code   856  stm32f4xx_hal_rcc.o(i.HAL_RCC_OscConfig)
    HAL_SYSTICK_Config                       0x08001141   Thumb Code    40  stm32f4xx_hal_cortex.o(i.HAL_SYSTICK_Config)
    HAL_TIMEx_ConfigBreakDeadTime            0x08001169   Thumb Code    84  stm32f4xx_hal_tim_ex.o(i.HAL_TIMEx_ConfigBreakDeadTime)
    HAL_TIMEx_MasterConfigSynchronization    0x080011bd   Thumb Code   104  stm32f4xx_hal_tim_ex.o(i.HAL_TIMEx_MasterConfigSynchronization)
    HAL_TIM_MspPostInit                      0x08001239   Thumb Code   258  stm32f4xx_hal_msp.o(i.HAL_TIM_MspPostInit)
    HAL_TIM_PWM_ConfigChannel                0x0800135d   Thumb Code   204  stm32f4xx_hal_tim.o(i.HAL_TIM_PWM_ConfigChannel)
    HAL_TIM_PWM_Init                         0x08001429   Thumb Code    90  stm32f4xx_hal_tim.o(i.HAL_TIM_PWM_Init)
    HAL_TIM_PWM_MspInit                      0x08001485   Thumb Code   108  stm32f4xx_hal_msp.o(i.HAL_TIM_PWM_MspInit)
    HAL_UART_Init                            0x08001505   Thumb Code    98  stm32f4xx_hal_uart.o(i.HAL_UART_Init)
    HAL_UART_MspInit                         0x08001569   Thumb Code    94  stm32f4xx_hal_msp.o(i.HAL_UART_MspInit)
    HAL_UART_Transmit                        0x080015d5   Thumb Code   178  stm32f4xx_hal_uart.o(i.HAL_UART_Transmit)
    MemManage_Handler                        0x08001af1   Thumb Code     2  stm32f4xx_it.o(i.MemManage_Handler)
    NMI_Handler                              0x08001af3   Thumb Code     2  stm32f4xx_it.o(i.NMI_Handler)
    SysTick_Handler                          0x08001af5   Thumb Code    18  board.o(i.SysTick_Handler)
    SystemClock_Config                       0x08001b09   Thumb Code   140  main.o(i.SystemClock_Config)
    SystemCoreClockUpdate                    0x08001b9d   Thumb Code   104  system_stm32f4xx.o(i.SystemCoreClockUpdate)
    SystemInit                               0x08001c19   Thumb Code    12  system_stm32f4xx.o(i.SystemInit)
    TIM_Base_SetConfig                       0x08001c29   Thumb Code   122  stm32f4xx_hal_tim.o(i.TIM_Base_SetConfig)
    TIM_OC2_SetConfig                        0x08001d11   Thumb Code    84  stm32f4xx_hal_tim.o(i.TIM_OC2_SetConfig)
    UsageFault_Handler                       0x08001f89   Thumb Code     2  stm32f4xx_it.o(i.UsageFault_Handler)
    __rt_ffs                                 0x08001fad   Thumb Code    64  kservice.o(i.__rt_ffs)
    $Super$$main                             0x080020b1   Thumb Code   152  main.o(i.main)
    main_thread_entry                        0x08002155   Thumb Code    14  components.o(i.main_thread_entry)
    rt_application_init                      0x080022e9   Thumb Code    32  components.o(i.rt_application_init)
    rt_components_board_init                 0x08002315   Thumb Code    20  components.o(i.rt_components_board_init)
    rt_components_init                       0x08002331   Thumb Code    20  components.o(i.rt_components_init)
    rt_enter_critical                        0x0800234d   Thumb Code    22  scheduler.o(i.rt_enter_critical)
    rt_exit_critical                         0x08002369   Thumb Code    52  scheduler.o(i.rt_exit_critical)
    rt_free                                  0x080023a1   Thumb Code   112  mem.o(i.rt_free)
    rt_heap_begin_get                        0x08002465   Thumb Code     4  board.o(i.rt_heap_begin_get)
    rt_heap_end_get                          0x0800246d   Thumb Code     4  board.o(i.rt_heap_end_get)
    rt_hw_board_init                         0x08002475   Thumb Code    54  board.o(i.rt_hw_board_init)
    rt_hw_console_output                     0x080024ad   Thumb Code    66  board.o(i.rt_hw_console_output)
    rt_hw_hard_fault_exception               0x080024f5   Thumb Code   190  cpuport.o(i.rt_hw_hard_fault_exception)
    rt_hw_stack_init                         0x08002705   Thumb Code    54  cpuport.o(i.rt_hw_stack_init)
    rt_interrupt_enter                       0x08002741   Thumb Code    22  irq.o(i.rt_interrupt_enter)
    rt_interrupt_leave                       0x0800275d   Thumb Code    22  irq.o(i.rt_interrupt_leave)
    rt_kprintf                               0x08002779   Thumb Code    28  kservice.o(i.rt_kprintf)
    rt_malloc                                0x08002809   Thumb Code   232  mem.o(i.rt_malloc)
    rt_memset                                0x080028f9   Thumb Code    70  kservice.o(i.rt_memset)
    rt_object_allocate                       0x0800293f   Thumb Code    80  object.o(i.rt_object_allocate)
    rt_object_delete                         0x0800298f   Thumb Code    38  object.o(i.rt_object_delete)
    rt_object_detach                         0x080029b5   Thumb Code    32  object.o(i.rt_object_detach)
    rt_object_get_information                0x080029d5   Thumb Code    30  object.o(i.rt_object_get_information)
    rt_object_init                           0x080029f9   Thumb Code    80  object.o(i.rt_object_init)
    rt_object_is_systemobject                0x08002a49   Thumb Code    14  object.o(i.rt_object_is_systemobject)
    rt_schedule                              0x08002a59   Thumb Code    76  scheduler.o(i.rt_schedule)
    rt_schedule_insert_thread                0x08002ab1   Thumb Code    70  scheduler.o(i.rt_schedule_insert_thread)
    rt_schedule_remove_thread                0x08002b01   Thumb Code    64  scheduler.o(i.rt_schedule_remove_thread)
    rt_sem_init                              0x08002b49   Thumb Code    36  ipc.o(i.rt_sem_init)
    rt_sem_release                           0x08002b6d   Thumb Code    74  ipc.o(i.rt_sem_release)
    rt_sem_take                              0x08002bb7   Thumb Code   174  ipc.o(i.rt_sem_take)
    rt_show_version                          0x08002c65   Thumb Code    40  kservice.o(i.rt_show_version)
    rt_strlen                                0x08002d15   Thumb Code    16  kservice.o(i.rt_strlen)
    rt_strncpy                               0x08002d25   Thumb Code    38  kservice.o(i.rt_strncpy)
    rt_system_heap_init                      0x08002d4d   Thumb Code    96  mem.o(i.rt_system_heap_init)
    rt_system_scheduler_init                 0x08002df9   Thumb Code    44  scheduler.o(i.rt_system_scheduler_init)
    rt_system_scheduler_start                0x08002e2d   Thumb Code    32  scheduler.o(i.rt_system_scheduler_start)
    rt_system_timer_init                     0x08002e55   Thumb Code     8  timer.o(i.rt_system_timer_init)
    rt_system_timer_thread_init              0x08002e61   Thumb Code     2  timer.o(i.rt_system_timer_thread_init)
    rt_thread_create                         0x08002e63   Thumb Code    72  thread.o(i.rt_thread_create)
    rt_thread_exit                           0x08002ead   Thumb Code    82  thread.o(i.rt_thread_exit)
    rt_thread_idle_excute                    0x08002f11   Thumb Code    70  idle.o(i.rt_thread_idle_excute)
    rt_thread_idle_init                      0x08002f5d   Thumb Code    40  idle.o(i.rt_thread_idle_init)
    rt_thread_init                           0x08002f95   Thumb Code    48  thread.o(i.rt_thread_init)
    rt_thread_mdelay                         0x08002fc5   Thumb Code    14  thread.o(i.rt_thread_mdelay)
    rt_thread_resume                         0x08002fd3   Thumb Code    60  thread.o(i.rt_thread_resume)
    rt_thread_self                           0x08003011   Thumb Code     6  thread.o(i.rt_thread_self)
    rt_thread_sleep                          0x0800301d   Thumb Code    60  thread.o(i.rt_thread_sleep)
    rt_thread_startup                        0x0800305d   Thumb Code    40  thread.o(i.rt_thread_startup)
    rt_thread_suspend                        0x08003089   Thumb Code    66  thread.o(i.rt_thread_suspend)
    rt_thread_timeout                        0x080030cb   Thumb Code    32  thread.o(i.rt_thread_timeout)
    rt_thread_yield                          0x080030ed   Thumb Code    86  thread.o(i.rt_thread_yield)
    rt_tick_from_millisecond                 0x0800314d   Thumb Code    50  clock.o(i.rt_tick_from_millisecond)
    rt_tick_get                              0x08003181   Thumb Code     6  clock.o(i.rt_tick_get)
    rt_tick_increase                         0x0800318d   Thumb Code    38  clock.o(i.rt_tick_increase)
    rt_timer_check                           0x080031b9   Thumb Code   136  timer.o(i.rt_timer_check)
    rt_timer_control                         0x08003245   Thumb Code    72  timer.o(i.rt_timer_control)
    rt_timer_detach                          0x0800328d   Thumb Code    40  timer.o(i.rt_timer_detach)
    rt_timer_init                            0x080032b5   Thumb Code    40  timer.o(i.rt_timer_init)
    rt_timer_start                           0x080032dd   Thumb Code   126  timer.o(i.rt_timer_start)
    rt_timer_stop                            0x08003361   Thumb Code    46  timer.o(i.rt_timer_stop)
    rt_vsnprintf                             0x08003391   Thumb Code   634  kservice.o(i.rt_vsnprintf)
    rtthread_startup                         0x08003625   Thumb Code    42  components.o(i.rtthread_startup)
    _fp_init                                 0x080036ad   Thumb Code    10  fpinit.o(x$fpl$fpinit)
    __fplib_config_fpu_vfp                   0x080036b5   Thumb Code     0  fpinit.o(x$fpl$fpinit)
    __fplib_config_pureend_doubles           0x080036b5   Thumb Code     0  fpinit.o(x$fpl$fpinit)
    AHBPrescTable                            0x080036b6   Data          16  system_stm32f4xx.o(.constdata)
    APBPrescTable                            0x080036c6   Data           8  system_stm32f4xx.o(.constdata)
    __lowest_bit_bitmap                      0x080036ce   Data         256  kservice.o(.constdata)
    __rt_init_rti_start                      0x080037f0   Data           4  components.o(.rti_fn.0)
    __rt_init_rti_board_start                0x080037f4   Data           4  components.o(.rti_fn.0.end)
    __rt_init_uart_init                      0x080037f8   Data           4  board.o(.rti_fn.1)
    __rt_init_rti_board_end                  0x080037fc   Data           4  components.o(.rti_fn.1.end)
    __rt_init_rti_end                        0x08003800   Data           4  components.o(.rti_fn.6.end)
    Region$$Table$$Base                      0x08003804   Number         0  anon$$obj.o(Region$$Table)
    Region$$Table$$Limit                     0x08003824   Number         0  anon$$obj.o(Region$$Table)
    uwTickFreq                               0x20000000   Data           1  stm32f4xx_hal.o(.data)
    uwTickPrio                               0x20000004   Data           4  stm32f4xx_hal.o(.data)
    uwTick                                   0x20000008   Data           4  stm32f4xx_hal.o(.data)
    SystemCoreClock                          0x2000000c   Data           4  system_stm32f4xx.o(.data)
    rt_interrupt_nest                        0x20000014   Data           1  irq.o(.data)
    rt_current_priority                      0x20000060   Data           1  scheduler.o(.data)
    rt_current_thread                        0x20000064   Data           4  scheduler.o(.data)
    rt_thread_ready_priority_group           0x20000068   Data           4  scheduler.o(.data)
    rt_thread_defunct                        0x2000006c   Data           8  scheduler.o(.data)
    rt_interrupt_from_thread                 0x20000084   Data           4  cpuport.o(.data)
    rt_interrupt_to_thread                   0x20000088   Data           4  cpuport.o(.data)
    rt_thread_switch_interrupt_flag          0x2000008c   Data           4  cpuport.o(.data)
    hadc1                                    0x20000090   Data          72  main.o(.bss)
    htim1                                    0x200000d8   Data          72  main.o(.bss)
    htim2                                    0x20000120   Data          72  main.o(.bss)
    htim3                                    0x20000168   Data          72  main.o(.bss)
    htim4                                    0x200001b0   Data          72  main.o(.bss)
    htim5                                    0x200001f8   Data          72  main.o(.bss)
    huart6                                   0x20000240   Data          68  main.o(.bss)
    rt_thread_priority_table                 0x2000049c   Data         256  scheduler.o(.bss)
    __libspace_start                         0x200041e0   Data          96  libspace.o(.bss)
    __temporary_stack_top$libspace           0x20004240   Data           0  libspace.o(.bss)



==============================================================================

Memory Map of the image

  Image Entry point : 0x08000195

  Load Region LR_IROM1 (Base: 0x08000000, Size: 0x000038b4, Max: 0x00040000, ABSOLUTE)

    Execution Region ER_IROM1 (Exec base: 0x08000000, Load base: 0x08000000, Size: 0x00003824, Max: 0x00040000, ABSOLUTE)

    Exec Addr    Load Addr    Size         Type   Attr      Idx    E Section Name        Object

    0x08000000   0x08000000   0x00000194   Data   RO            3    RESET               startup_stm32f401xc.o
    0x08000194   0x08000194   0x00000008   Code   RO         4201  * !!!main             c_w.l(__main.o)
    0x0800019c   0x0800019c   0x00000034   Code   RO         4368    !!!scatter          c_w.l(__scatter.o)
    0x080001d0   0x080001d0   0x0000001a   Code   RO         4370    !!handler_copy      c_w.l(__scatter_copy.o)
    0x080001ea   0x080001ea   0x00000002   PAD
    0x080001ec   0x080001ec   0x0000001c   Code   RO         4372    !!handler_zi        c_w.l(__scatter_zi.o)
    0x08000208   0x08000208   0x00000002   Code   RO         4238    .ARM.Collect$$libinit$$00000000  c_w.l(libinit.o)
    0x0800020a   0x0800020a   0x00000004   Code   RO         4250    .ARM.Collect$$libinit$$00000001  c_w.l(libinit2.o)
    0x0800020e   0x0800020e   0x00000000   Code   RO         4253    .ARM.Collect$$libinit$$00000004  c_w.l(libinit2.o)
    0x0800020e   0x0800020e   0x00000000   Code   RO         4256    .ARM.Collect$$libinit$$0000000A  c_w.l(libinit2.o)
    0x0800020e   0x0800020e   0x00000000   Code   RO         4258    .ARM.Collect$$libinit$$0000000C  c_w.l(libinit2.o)
    0x0800020e   0x0800020e   0x00000000   Code   RO         4260    .ARM.Collect$$libinit$$0000000E  c_w.l(libinit2.o)
    0x0800020e   0x0800020e   0x00000000   Code   RO         4263    .ARM.Collect$$libinit$$00000011  c_w.l(libinit2.o)
    0x0800020e   0x0800020e   0x00000000   Code   RO         4265    .ARM.Collect$$libinit$$00000013  c_w.l(libinit2.o)
    0x0800020e   0x0800020e   0x00000000   Code   RO         4267    .ARM.Collect$$libinit$$00000015  c_w.l(libinit2.o)
    0x0800020e   0x0800020e   0x00000000   Code   RO         4269    .ARM.Collect$$libinit$$00000017  c_w.l(libinit2.o)
    0x0800020e   0x0800020e   0x00000000   Code   RO         4271    .ARM.Collect$$libinit$$00000019  c_w.l(libinit2.o)
    0x0800020e   0x0800020e   0x00000000   Code   RO         4273    .ARM.Collect$$libinit$$0000001B  c_w.l(libinit2.o)
    0x0800020e   0x0800020e   0x00000000   Code   RO         4275    .ARM.Collect$$libinit$$0000001D  c_w.l(libinit2.o)
    0x0800020e   0x0800020e   0x00000000   Code   RO         4277    .ARM.Collect$$libinit$$0000001F  c_w.l(libinit2.o)
    0x0800020e   0x0800020e   0x00000000   Code   RO         4279    .ARM.Collect$$libinit$$00000021  c_w.l(libinit2.o)
    0x0800020e   0x0800020e   0x00000000   Code   RO         4281    .ARM.Collect$$libinit$$00000023  c_w.l(libinit2.o)
    0x0800020e   0x0800020e   0x00000000   Code   RO         4283    .ARM.Collect$$libinit$$00000025  c_w.l(libinit2.o)
    0x0800020e   0x0800020e   0x00000000   Code   RO         4287    .ARM.Collect$$libinit$$0000002C  c_w.l(libinit2.o)
    0x0800020e   0x0800020e   0x00000000   Code   RO         4289    .ARM.Collect$$libinit$$0000002E  c_w.l(libinit2.o)
    0x0800020e   0x0800020e   0x00000000   Code   RO         4291    .ARM.Collect$$libinit$$00000030  c_w.l(libinit2.o)
    0x0800020e   0x0800020e   0x00000000   Code   RO         4293    .ARM.Collect$$libinit$$00000032  c_w.l(libinit2.o)
    0x0800020e   0x0800020e   0x00000002   Code   RO         4294    .ARM.Collect$$libinit$$00000033  c_w.l(libinit2.o)
    0x08000210   0x08000210   0x00000002   Code   RO         4325    .ARM.Collect$$libshutdown$$00000000  c_w.l(libshutdown.o)
    0x08000212   0x08000212   0x00000000   Code   RO         4351    .ARM.Collect$$libshutdown$$00000002  c_w.l(libshutdown2.o)
    0x08000212   0x08000212   0x00000000   Code   RO         4353    .ARM.Collect$$libshutdown$$00000004  c_w.l(libshutdown2.o)
    0x08000212   0x08000212   0x00000000   Code   RO         4356    .ARM.Collect$$libshutdown$$00000007  c_w.l(libshutdown2.o)
    0x08000212   0x08000212   0x00000000   Code   RO         4359    .ARM.Collect$$libshutdown$$0000000A  c_w.l(libshutdown2.o)
    0x08000212   0x08000212   0x00000000   Code   RO         4361    .ARM.Collect$$libshutdown$$0000000C  c_w.l(libshutdown2.o)
    0x08000212   0x08000212   0x00000000   Code   RO         4364    .ARM.Collect$$libshutdown$$0000000F  c_w.l(libshutdown2.o)
    0x08000212   0x08000212   0x00000002   Code   RO         4365    .ARM.Collect$$libshutdown$$00000010  c_w.l(libshutdown2.o)
    0x08000214   0x08000214   0x00000000   Code   RO         4203    .ARM.Collect$$rtentry$$00000000  c_w.l(__rtentry.o)
    0x08000214   0x08000214   0x00000000   Code   RO         4209    .ARM.Collect$$rtentry$$00000002  c_w.l(__rtentry2.o)
    0x08000214   0x08000214   0x00000006   Code   RO         4221    .ARM.Collect$$rtentry$$00000004  c_w.l(__rtentry4.o)
    0x0800021a   0x0800021a   0x00000000   Code   RO         4211    .ARM.Collect$$rtentry$$00000009  c_w.l(__rtentry2.o)
    0x0800021a   0x0800021a   0x00000004   Code   RO         4212    .ARM.Collect$$rtentry$$0000000A  c_w.l(__rtentry2.o)
    0x0800021e   0x0800021e   0x00000000   Code   RO         4214    .ARM.Collect$$rtentry$$0000000C  c_w.l(__rtentry2.o)
    0x0800021e   0x0800021e   0x00000008   Code   RO         4215    .ARM.Collect$$rtentry$$0000000D  c_w.l(__rtentry2.o)
    0x08000226   0x08000226   0x00000002   Code   RO         4242    .ARM.Collect$$rtexit$$00000000  c_w.l(rtexit.o)
    0x08000228   0x08000228   0x00000000   Code   RO         4298    .ARM.Collect$$rtexit$$00000002  c_w.l(rtexit2.o)
    0x08000228   0x08000228   0x00000004   Code   RO         4299    .ARM.Collect$$rtexit$$00000003  c_w.l(rtexit2.o)
    0x0800022c   0x0800022c   0x00000006   Code   RO         4300    .ARM.Collect$$rtexit$$00000004  c_w.l(rtexit2.o)
    0x08000232   0x08000232   0x00000002   PAD
    0x08000234   0x08000234   0x00000040   Code   RO            4    .text               startup_stm32f401xc.o
    0x08000274   0x08000274   0x00000134   Code   RO         3154    .text               context_rvds.o
    0x080003a8   0x080003a8   0x000000ee   Code   RO         4195    .text               c_w.l(lludivv7m.o)
    0x08000496   0x08000496   0x0000004e   Code   RO         4197    .text               c_w.l(rt_memclr_w.o)
    0x080004e4   0x080004e4   0x00000006   Code   RO         4199    .text               c_w.l(heapauxi.o)
    0x080004ea   0x080004ea   0x0000004a   Code   RO         4225    .text               c_w.l(sys_stackheap_outer.o)
    0x08000534   0x08000534   0x00000012   Code   RO         4227    .text               c_w.l(exit.o)
    0x08000546   0x08000546   0x00000002   PAD
    0x08000548   0x08000548   0x00000008   Code   RO         4239    .text               c_w.l(libspace.o)
    0x08000550   0x08000550   0x0000000c   Code   RO         4295    .text               c_w.l(sys_exit.o)
    0x0800055c   0x0800055c   0x00000002   Code   RO         4314    .text               c_w.l(use_no_semi.o)
    0x0800055e   0x0800055e   0x00000000   Code   RO         4316    .text               c_w.l(indicate_semi.o)
    0x0800055e   0x0800055e   0x0000000a   Code   RO         3199    i.$Sub$$main        components.o
    0x08000568   0x08000568   0x00000128   Code   RO          334    i.ADC_Init          stm32f4xx_hal_adc.o
    0x08000690   0x08000690   0x00000002   Code   RO          214    i.BusFault_Handler  stm32f4xx_it.o
    0x08000692   0x08000692   0x00000002   Code   RO          215    i.DebugMon_Handler  stm32f4xx_it.o
    0x08000694   0x08000694   0x00000050   Code   RO         4166    i.EMlight_Display   emlight.o
    0x080006e4   0x080006e4   0x00000034   Code   RO         4167    i.EMlight_Init      emlight.o
    0x08000718   0x08000718   0x0000014c   Code   RO          336    i.HAL_ADC_ConfigChannel  stm32f4xx_hal_adc.o
    0x08000864   0x08000864   0x00000054   Code   RO          345    i.HAL_ADC_Init      stm32f4xx_hal_adc.o
    0x080008b8   0x080008b8   0x00000084   Code   RO          266    i.HAL_ADC_MspInit   stm32f4xx_hal_msp.o
    0x0800093c   0x0800093c   0x000001e0   Code   RO          988    i.HAL_GPIO_Init     stm32f4xx_hal_gpio.o
    0x08000b1c   0x08000b1c   0x0000000a   Code   RO          992    i.HAL_GPIO_WritePin  stm32f4xx_hal_gpio.o
    0x08000b26   0x08000b26   0x00000002   PAD
    0x08000b28   0x08000b28   0x0000001c   Code   RO         4123    i.HAL_GetTick       delay.o
    0x08000b44   0x08000b44   0x00000034   Code   RO         1551    i.HAL_Init          stm32f4xx_hal.o
    0x08000b78   0x08000b78   0x00000024   Code   RO         4124    i.HAL_InitTick      delay.o
    0x08000b9c   0x08000b9c   0x00000030   Code   RO          267    i.HAL_MspInit       stm32f4xx_hal_msp.o
    0x08000bcc   0x08000bcc   0x00000024   Code   RO         1408    i.HAL_NVIC_SetPriorityGrouping  stm32f4xx_hal_cortex.o
    0x08000bf0   0x08000bf0   0x00000134   Code   RO          610    i.HAL_RCC_ClockConfig  stm32f4xx_hal_rcc.o
    0x08000d24   0x08000d24   0x0000000c   Code   RO          615    i.HAL_RCC_GetHCLKFreq  stm32f4xx_hal_rcc.o
    0x08000d30   0x08000d30   0x00000020   Code   RO          617    i.HAL_RCC_GetPCLK1Freq  stm32f4xx_hal_rcc.o
    0x08000d50   0x08000d50   0x00000020   Code   RO          618    i.HAL_RCC_GetPCLK2Freq  stm32f4xx_hal_rcc.o
    0x08000d70   0x08000d70   0x00000064   Code   RO          619    i.HAL_RCC_GetSysClockFreq  stm32f4xx_hal_rcc.o
    0x08000dd4   0x08000dd4   0x0000036c   Code   RO          622    i.HAL_RCC_OscConfig  stm32f4xx_hal_rcc.o
    0x08001140   0x08001140   0x00000028   Code   RO         1412    i.HAL_SYSTICK_Config  stm32f4xx_hal_cortex.o
    0x08001168   0x08001168   0x00000054   Code   RO         2498    i.HAL_TIMEx_ConfigBreakDeadTime  stm32f4xx_hal_tim_ex.o
    0x080011bc   0x080011bc   0x0000007c   Code   RO         2514    i.HAL_TIMEx_MasterConfigSynchronization  stm32f4xx_hal_tim_ex.o
    0x08001238   0x08001238   0x00000124   Code   RO          268    i.HAL_TIM_MspPostInit  stm32f4xx_hal_msp.o
    0x0800135c   0x0800135c   0x000000cc   Code   RO         1863    i.HAL_TIM_PWM_ConfigChannel  stm32f4xx_hal_tim.o
    0x08001428   0x08001428   0x0000005a   Code   RO         1866    i.HAL_TIM_PWM_Init  stm32f4xx_hal_tim.o
    0x08001482   0x08001482   0x00000002   PAD
    0x08001484   0x08001484   0x00000080   Code   RO          270    i.HAL_TIM_PWM_MspInit  stm32f4xx_hal_msp.o
    0x08001504   0x08001504   0x00000062   Code   RO         2791    i.HAL_UART_Init     stm32f4xx_hal_uart.o
    0x08001566   0x08001566   0x00000002   PAD
    0x08001568   0x08001568   0x0000006c   Code   RO          272    i.HAL_UART_MspInit  stm32f4xx_hal_msp.o
    0x080015d4   0x080015d4   0x000000b2   Code   RO         2799    i.HAL_UART_Transmit  stm32f4xx_hal_uart.o
    0x08001686   0x08001686   0x00000002   PAD
    0x08001688   0x08001688   0x00000064   Code   RO           14    i.MX_ADC1_Init      main.o
    0x080016ec   0x080016ec   0x000000fc   Code   RO           15    i.MX_GPIO_Init      main.o
    0x080017e8   0x080017e8   0x000000c0   Code   RO           16    i.MX_TIM1_Init      main.o
    0x080018a8   0x080018a8   0x0000008c   Code   RO           17    i.MX_TIM2_Init      main.o
    0x08001934   0x08001934   0x00000090   Code   RO           18    i.MX_TIM3_Init      main.o
    0x080019c4   0x080019c4   0x000000a0   Code   RO           19    i.MX_TIM4_Init      main.o
    0x08001a64   0x08001a64   0x0000008c   Code   RO           20    i.MX_TIM5_Init      main.o
    0x08001af0   0x08001af0   0x00000002   Code   RO          216    i.MemManage_Handler  stm32f4xx_it.o
    0x08001af2   0x08001af2   0x00000002   Code   RO          217    i.NMI_Handler       stm32f4xx_it.o
    0x08001af4   0x08001af4   0x00000012   Code   RO         4064    i.SysTick_Handler   board.o
    0x08001b06   0x08001b06   0x00000002   PAD
    0x08001b08   0x08001b08   0x00000094   Code   RO           21    i.SystemClock_Config  main.o
    0x08001b9c   0x08001b9c   0x0000007c   Code   RO         3119    i.SystemCoreClockUpdate  system_stm32f4xx.o
    0x08001c18   0x08001c18   0x00000010   Code   RO         3120    i.SystemInit        system_stm32f4xx.o
    0x08001c28   0x08001c28   0x00000098   Code   RO         1884    i.TIM_Base_SetConfig  stm32f4xx_hal_tim.o
    0x08001cc0   0x08001cc0   0x00000050   Code   RO         1897    i.TIM_OC1_SetConfig  stm32f4xx_hal_tim.o
    0x08001d10   0x08001d10   0x00000058   Code   RO         1898    i.TIM_OC2_SetConfig  stm32f4xx_hal_tim.o
    0x08001d68   0x08001d68   0x00000058   Code   RO         1899    i.TIM_OC3_SetConfig  stm32f4xx_hal_tim.o
    0x08001dc0   0x08001dc0   0x00000044   Code   RO         1900    i.TIM_OC4_SetConfig  stm32f4xx_hal_tim.o
    0x08001e04   0x08001e04   0x0000010c   Code   RO         2817    i.UART_SetConfig    stm32f4xx_hal_uart.o
    0x08001f10   0x08001f10   0x00000078   Code   RO         2820    i.UART_WaitOnFlagUntilTimeout  stm32f4xx_hal_uart.o
    0x08001f88   0x08001f88   0x00000002   Code   RO          218    i.UsageFault_Handler  stm32f4xx_it.o
    0x08001f8a   0x08001f8a   0x00000020   Code   RO         1414    i.__NVIC_SetPriority  stm32f4xx_hal_cortex.o
    0x08001faa   0x08001faa   0x00000002   PAD
    0x08001fac   0x08001fac   0x00000044   Code   RO         3401    i.__rt_ffs          kservice.o
    0x08001ff0   0x08001ff0   0x00000080   Code   RO         3792    i._rt_thread_init   thread.o
    0x08002070   0x08002070   0x0000001c   Code   RO         3922    i._rt_timer_init    timer.o
    0x0800208c   0x0800208c   0x00000006   Code   RO         3923    i._rt_timer_remove  timer.o
    0x08002092   0x08002092   0x0000001c   Code   RO         3793    i._thread_cleanup_execute  thread.o
    0x080020ae   0x080020ae   0x00000002   PAD
    0x080020b0   0x080020b0   0x000000a4   Code   RO           22    i.main              main.o
    0x08002154   0x08002154   0x0000000e   Code   RO         3200    i.main_thread_entry  components.o
    0x08002162   0x08002162   0x00000002   PAD
    0x08002164   0x08002164   0x00000054   Code   RO         3575    i.plug_holes        mem.o
    0x080021b8   0x080021b8   0x00000130   Code   RO         3403    i.print_number      kservice.o
    0x080022e8   0x080022e8   0x0000002c   Code   RO         3201    i.rt_application_init  components.o
    0x08002314   0x08002314   0x0000001c   Code   RO         3202    i.rt_components_board_init  components.o
    0x08002330   0x08002330   0x0000001c   Code   RO         3203    i.rt_components_init  components.o
    0x0800234c   0x0800234c   0x0000001c   Code   RO         3725    i.rt_enter_critical  scheduler.o
    0x08002368   0x08002368   0x00000038   Code   RO         3726    i.rt_exit_critical  scheduler.o
    0x080023a0   0x080023a0   0x000000c4   Code   RO         3577    i.rt_free           mem.o
    0x08002464   0x08002464   0x00000008   Code   RO         4065    i.rt_heap_begin_get  board.o
    0x0800246c   0x0800246c   0x00000008   Code   RO         4066    i.rt_heap_end_get   board.o
    0x08002474   0x08002474   0x00000036   Code   RO         4067    i.rt_hw_board_init  board.o
    0x080024aa   0x080024aa   0x00000002   PAD
    0x080024ac   0x080024ac   0x00000048   Code   RO         4068    i.rt_hw_console_output  board.o
    0x080024f4   0x080024f4   0x00000210   Code   RO         4022    i.rt_hw_hard_fault_exception  cpuport.o
    0x08002704   0x08002704   0x0000003c   Code   RO         4023    i.rt_hw_stack_init  cpuport.o
    0x08002740   0x08002740   0x0000001c   Code   RO         3374    i.rt_interrupt_enter  irq.o
    0x0800275c   0x0800275c   0x0000001c   Code   RO         3376    i.rt_interrupt_leave  irq.o
    0x08002778   0x08002778   0x00000020   Code   RO         3407    i.rt_kprintf        kservice.o
    0x08002798   0x08002798   0x0000000e   Code   RO         3637    i.rt_list_insert_after  object.o
    0x080027a6   0x080027a6   0x0000000e   Code   RO         3794    i.rt_list_insert_after  thread.o
    0x080027b4   0x080027b4   0x0000000e   Code   RO         3924    i.rt_list_insert_after  timer.o
    0x080027c2   0x080027c2   0x0000000e   Code   RO         3308    i.rt_list_insert_before  ipc.o
    0x080027d0   0x080027d0   0x00000012   Code   RO         3638    i.rt_list_remove    object.o
    0x080027e2   0x080027e2   0x00000012   Code   RO         3795    i.rt_list_remove    thread.o
    0x080027f4   0x080027f4   0x00000012   Code   RO         3925    i.rt_list_remove    timer.o
    0x08002806   0x08002806   0x00000002   PAD
    0x08002808   0x08002808   0x000000f0   Code   RO         3578    i.rt_malloc         mem.o
    0x080028f8   0x080028f8   0x00000046   Code   RO         3413    i.rt_memset         kservice.o
    0x0800293e   0x0800293e   0x00000050   Code   RO         3639    i.rt_object_allocate  object.o
    0x0800298e   0x0800298e   0x00000026   Code   RO         3640    i.rt_object_delete  object.o
    0x080029b4   0x080029b4   0x00000020   Code   RO         3641    i.rt_object_detach  object.o
    0x080029d4   0x080029d4   0x00000024   Code   RO         3643    i.rt_object_get_information  object.o
    0x080029f8   0x080029f8   0x00000050   Code   RO         3647    i.rt_object_init    object.o
    0x08002a48   0x08002a48   0x0000000e   Code   RO         3648    i.rt_object_is_systemobject  object.o
    0x08002a56   0x08002a56   0x00000002   PAD
    0x08002a58   0x08002a58   0x00000058   Code   RO         3727    i.rt_schedule       scheduler.o
    0x08002ab0   0x08002ab0   0x00000050   Code   RO         3728    i.rt_schedule_insert_thread  scheduler.o
    0x08002b00   0x08002b00   0x00000048   Code   RO         3729    i.rt_schedule_remove_thread  scheduler.o
    0x08002b48   0x08002b48   0x00000024   Code   RO         3313    i.rt_sem_init       ipc.o
    0x08002b6c   0x08002b6c   0x0000004a   Code   RO         3314    i.rt_sem_release    ipc.o
    0x08002bb6   0x08002bb6   0x000000ae   Code   RO         3315    i.rt_sem_take       ipc.o
    0x08002c64   0x08002c64   0x000000b0   Code   RO         3415    i.rt_show_version   kservice.o
    0x08002d14   0x08002d14   0x00000010   Code   RO         3421    i.rt_strlen         kservice.o
    0x08002d24   0x08002d24   0x00000026   Code   RO         3423    i.rt_strncpy        kservice.o
    0x08002d4a   0x08002d4a   0x00000002   PAD
    0x08002d4c   0x08002d4c   0x000000ac   Code   RO         3581    i.rt_system_heap_init  mem.o
    0x08002df8   0x08002df8   0x00000034   Code   RO         3730    i.rt_system_scheduler_init  scheduler.o
    0x08002e2c   0x08002e2c   0x00000028   Code   RO         3731    i.rt_system_scheduler_start  scheduler.o
    0x08002e54   0x08002e54   0x0000000c   Code   RO         3926    i.rt_system_timer_init  timer.o
    0x08002e60   0x08002e60   0x00000002   Code   RO         3927    i.rt_system_timer_thread_init  timer.o
    0x08002e62   0x08002e62   0x00000048   Code   RO         3797    i.rt_thread_create  thread.o
    0x08002eaa   0x08002eaa   0x00000002   PAD
    0x08002eac   0x08002eac   0x0000005c   Code   RO         3802    i.rt_thread_exit    thread.o
    0x08002f08   0x08002f08   0x00000006   Code   RO         3272    i.rt_thread_idle_entry  idle.o
    0x08002f0e   0x08002f0e   0x00000002   PAD
    0x08002f10   0x08002f10   0x0000004c   Code   RO         3273    i.rt_thread_idle_excute  idle.o
    0x08002f5c   0x08002f5c   0x00000038   Code   RO         3275    i.rt_thread_idle_init  idle.o
    0x08002f94   0x08002f94   0x00000030   Code   RO         3804    i.rt_thread_init    thread.o
    0x08002fc4   0x08002fc4   0x0000000e   Code   RO         3805    i.rt_thread_mdelay  thread.o
    0x08002fd2   0x08002fd2   0x0000003c   Code   RO         3806    i.rt_thread_resume  thread.o
    0x0800300e   0x0800300e   0x00000002   PAD
    0x08003010   0x08003010   0x0000000c   Code   RO         3807    i.rt_thread_self    thread.o
    0x0800301c   0x0800301c   0x00000040   Code   RO         3808    i.rt_thread_sleep   thread.o
    0x0800305c   0x0800305c   0x0000002c   Code   RO         3809    i.rt_thread_startup  thread.o
    0x08003088   0x08003088   0x00000042   Code   RO         3810    i.rt_thread_suspend  thread.o
    0x080030ca   0x080030ca   0x00000020   Code   RO         3811    i.rt_thread_timeout  thread.o
    0x080030ea   0x080030ea   0x00000002   PAD
    0x080030ec   0x080030ec   0x00000060   Code   RO         3812    i.rt_thread_yield   thread.o
    0x0800314c   0x0800314c   0x00000032   Code   RO         3159    i.rt_tick_from_millisecond  clock.o
    0x0800317e   0x0800317e   0x00000002   PAD
    0x08003180   0x08003180   0x0000000c   Code   RO         3160    i.rt_tick_get       clock.o
    0x0800318c   0x0800318c   0x0000002c   Code   RO         3161    i.rt_tick_increase  clock.o
    0x080031b8   0x080031b8   0x0000008c   Code   RO         3928    i.rt_timer_check    timer.o
    0x08003244   0x08003244   0x00000048   Code   RO         3929    i.rt_timer_control  timer.o
    0x0800328c   0x0800328c   0x00000028   Code   RO         3932    i.rt_timer_detach   timer.o
    0x080032b4   0x080032b4   0x00000028   Code   RO         3933    i.rt_timer_init     timer.o
    0x080032dc   0x080032dc   0x00000084   Code   RO         3935    i.rt_timer_start    timer.o
    0x08003360   0x08003360   0x0000002e   Code   RO         3936    i.rt_timer_stop     timer.o
    0x0800338e   0x0800338e   0x00000002   PAD
    0x08003390   0x08003390   0x00000284   Code   RO         3426    i.rt_vsnprintf      kservice.o
    0x08003614   0x08003614   0x00000004   Code   RO         3204    i.rti_board_end     components.o
    0x08003618   0x08003618   0x00000004   Code   RO         3205    i.rti_board_start   components.o
    0x0800361c   0x0800361c   0x00000004   Code   RO         3206    i.rti_end           components.o
    0x08003620   0x08003620   0x00000004   Code   RO         3207    i.rti_start         components.o
    0x08003624   0x08003624   0x0000002a   Code   RO         3208    i.rtthread_startup  components.o
    0x0800364e   0x0800364e   0x00000028   Code   RO         3428    i.skip_atoi         kservice.o
    0x08003676   0x08003676   0x00000002   PAD
    0x08003678   0x08003678   0x00000034   Code   RO         4069    i.uart_init         board.o
    0x080036ac   0x080036ac   0x0000000a   Code   RO         4310    x$fpl$fpinit        fz_wm.l(fpinit.o)
    0x080036b6   0x080036b6   0x00000010   Data   RO         3121    .constdata          system_stm32f4xx.o
    0x080036c6   0x080036c6   0x00000008   Data   RO         3122    .constdata          system_stm32f4xx.o
    0x080036ce   0x080036ce   0x00000122   Data   RO         3430    .constdata          kservice.o
    0x080037f0   0x080037f0   0x00000004   Data   RO         3209    .rti_fn.0           components.o
    0x080037f4   0x080037f4   0x00000004   Data   RO         3210    .rti_fn.0.end       components.o
    0x080037f8   0x080037f8   0x00000004   Data   RO         4071    .rti_fn.1           board.o
    0x080037fc   0x080037fc   0x00000004   Data   RO         3211    .rti_fn.1.end       components.o
    0x08003800   0x08003800   0x00000004   Data   RO         3212    .rti_fn.6.end       components.o
    0x08003804   0x08003804   0x00000020   Data   RO         4366    Region$$Table       anon$$obj.o


    Execution Region RW_IRAM1 (Exec base: 0x20000000, Load base: 0x08003824, Size: 0x00004840, Max: 0x00010000, ABSOLUTE)

    Exec Addr    Load Addr    Size         Type   Attr      Idx    E Section Name        Object

    0x20000000   0x08003824   0x0000000c   Data   RW         1558    .data               stm32f4xx_hal.o
    0x2000000c   0x08003830   0x00000004   Data   RW         3123    .data               system_stm32f4xx.o
    0x20000010   0x08003834   0x00000004   Data   RW         3163    .data               clock.o
    0x20000014   0x08003838   0x00000001   Data   RW         3377    .data               irq.o
    0x20000015   0x08003839   0x00000003   PAD
    0x20000018   0x0800383c   0x00000018   Data   RW         3583    .data               mem.o
    0x20000030   0x08003854   0x00000030   Data   RW         3650    .data               object.o
    0x20000060   0x08003884   0x00000014   Data   RW         3733    .data               scheduler.o
    0x20000074   0x08003898   0x0000000c   Data   RW         3937    .data               timer.o
    0x20000080   0x080038a4   0x00000004   Data   RW         4024    .data               cpuport.o
    0x20000084   0x080038a8   0x00000004   Data   RW         4025    .data               cpuport.o
    0x20000088   0x080038ac   0x00000004   Data   RW         4026    .data               cpuport.o
    0x2000008c   0x080038b0   0x00000004   Data   RW         4027    .data               cpuport.o
    0x20000090        -       0x000001f4   Zero   RW           23    .bss                main.o
    0x20000284        -       0x00000178   Zero   RW         3276    .bss                idle.o
    0x200003fc        -       0x00000080   Zero   RW         3429    .bss                kservice.o
    0x2000047c        -       0x00000020   Zero   RW         3582    .bss                mem.o
    0x2000049c        -       0x00000100   Zero   RW         3732    .bss                scheduler.o
    0x2000059c        -       0x00003c44   Zero   RW         4070    .bss                board.o
    0x200041e0        -       0x00000060   Zero   RW         4240    .bss                c_w.l(libspace.o)
    0x20004240        -       0x00000200   Zero   RW            2    HEAP                startup_stm32f401xc.o
    0x20004440        -       0x00000400   Zero   RW            1    STACK               startup_stm32f401xc.o


==============================================================================

Image component sizes


      Code (inc. data)   RO Data    RW Data    ZI Data      Debug   Object Name

       212         24          4          0      15428       4888   board.o
       106         12          0          4          0       2164   clock.o
       182         28         16          0          0       6970   components.o
       308         28          0          0          0        916   context_rvds.o
       588        344          0         16          0       4430   cpuport.o
        64         18          0          0          0       1033   delay.o
       132         28          0          0          0       1077   emlight.o
       138         22          0          0        376       5498   idle.o
       298          0          0          0          0       6881   ipc.o
        56         12          0          1          0       1918   irq.o
      1388        158        290          0        128      11196   kservice.o
      1440         92          0          0        500     444341   main.o
       692        172          0         24         32       4456   mem.o
       312          6          0         48          0       9324   object.o
       416         56          0         20        256       9058   scheduler.o
        64         26        404          0       1536        872   startup_stm32f401xc.o
        52          4          0         12          0       7002   stm32f4xx_hal.o
       712         28          0          0          0       2995   stm32f4xx_hal_adc.o
       108         10          0          0          0      32327   stm32f4xx_hal_cortex.o
       490         34          0          0          0       2256   stm32f4xx_hal_gpio.o
       708         90          0          0          0       4299   stm32f4xx_hal_msp.o
      1360         82          0          0          0       5916   stm32f4xx_hal_rcc.o
       770         50          0          0          0       6930   stm32f4xx_hal_tim.o
       208         20          0          0          0       2248   stm32f4xx_hal_tim_ex.o
       664         10          0          0          0       4316   stm32f4xx_hal_uart.o
        10          0          0          0          0       2461   stm32f4xx_it.o
       140         24         24          4          0       1983   system_stm32f4xx.o
       788         44          0          0          0      14131   thread.o
       550         20          0         12          0      12340   timer.o

    ----------------------------------------------------------------------
     12994       1442        770        144      18256     614226   Object Totals
         0          0         32          0          0          0   (incl. Generated)
        38          0          0          3          0          0   (incl. Padding)

    ----------------------------------------------------------------------

      Code (inc. data)   RO Data    RW Data    ZI Data      Debug   Library Member Name

         8          0          0          0          0         68   __main.o
         0          0          0          0          0          0   __rtentry.o
        12          0          0          0          0          0   __rtentry2.o
         6          0          0          0          0          0   __rtentry4.o
        52          8          0          0          0          0   __scatter.o
        26          0          0          0          0          0   __scatter_copy.o
        28          0          0          0          0          0   __scatter_zi.o
        18          0          0          0          0         80   exit.o
         6          0          0          0          0        152   heapauxi.o
         0          0          0          0          0          0   indicate_semi.o
         2          0          0          0          0          0   libinit.o
         6          0          0          0          0          0   libinit2.o
         2          0          0          0          0          0   libshutdown.o
         2          0          0          0          0          0   libshutdown2.o
         8          4          0          0         96         68   libspace.o
       238          0          0          0          0        100   lludivv7m.o
        78          0          0          0          0         80   rt_memclr_w.o
         2          0          0          0          0          0   rtexit.o
        10          0          0          0          0          0   rtexit2.o
        12          4          0          0          0         68   sys_exit.o
        74          0          0          0          0         80   sys_stackheap_outer.o
         2          0          0          0          0         68   use_no_semi.o
        10          0          0          0          0        116   fpinit.o

    ----------------------------------------------------------------------
       608         16          0          0         96        880   Library Totals
         6          0          0          0          0          0   (incl. Padding)

    ----------------------------------------------------------------------

      Code (inc. data)   RO Data    RW Data    ZI Data      Debug   Library Name

       592         16          0          0         96        764   c_w.l
        10          0          0          0          0        116   fz_wm.l

    ----------------------------------------------------------------------
       608         16          0          0         96        880   Library Totals

    ----------------------------------------------------------------------

==============================================================================


      Code (inc. data)   RO Data    RW Data    ZI Data      Debug   

     13602       1458        770        144      18352     601746   Grand Totals
     13602       1458        770        144      18352     601746   ELF Image Totals
     13602       1458        770        144          0          0   ROM Totals

==============================================================================

    Total RO  Size (Code + RO Data)                14372 (  14.04kB)
    Total RW  Size (RW Data + ZI Data)             18496 (  18.06kB)
    Total ROM Size (Code + RO Data + RW Data)      14516 (  14.18kB)

==============================================================================

